S00E0000393236375F342E73726563AB
S1130000B821002051670000996300004D6700008B
S11300104D6700004D6700004D67000000000000C0
S11300200000000000000000000000004D67000018
S11300304D670000000000004D6700004D670000A0
S1130040C14100005537000031290000E9280000B3
S1130050C129000079290000552900000D2900005C
S1130060E52900009D2900000000000000000000B8
S1130070000000000000000000000000000000007C
S1130080000000000000000000000000000000006C
S1130090000000000000000000000000000000005C
S11300A0000000000000000000000000000000004C
S1130400FFFFFFFFDFCFFFFFFFFFFFFFFFFFFFFF48
S1130410FFFFFFFFFFFFFFFFFFFFFFFFFFFFFFFFE8
S1130420FFFFFFFFFFFFFFFFFFFFFFFFFFFFFFFFD8
S1130430FFFFFFFFFFFFFFFFFFFFFFFFFFFFFFFFC8
S1130440FFFFFFFFFFFFFFFFFFFFFFFFFFFFFFFFB8
S1130450FFFFFFFFFFFFFFFFFFFFFFFFFFFFFFFFA8
S1130460FFFFFFFFFFFFFFFFFFFFFFFFFFFFFFFF98
S1130470FFFFFFFFFFFFFFFFFFFFFFFFFFFFFFFF88
S1130480FFFFFFFFFFFFFFFFFFFFFFFFFFFFFFFF78
S1130490FFFFFFFFFFFFFFFFFFFFFFFFFFFFFFFF68
S11304A0FFFFFFFFFFFFFFFFFFFFFFFFFFFFFFFF58
S11304B0FFFFFFFFFFFFFFFFFFFFFFFFFFFFFFFF48
S11304C0FFFFFFFFFFFFFFFFFFFFFFFFFFFFFFFF38
S11304D0FFFFFFFFFFFFFFFFFFFFFFFFFFFFFFFF28
S11304E0FFFFFFFFFFFFFFFFFFFFFFFFFFFFFFFF18
S11304F0FFFFFFFFFFFFFFFFFFFFFFFFFFFFFFFF08
S113050010B5064C2378002B07D1054B002B02D0E5
S1130510044800E000BF0123237010BD0008002040
S1130520000000003CA1000008B5084B002B03D0DC
S11305300748084900E000BF07480368002B00D1C2
S113054008BD064B002BFBD09847F9E700000000DC
S11305503CA10000040800205C050020000000000D
S11305601F2318401E3B8340181C014B1860704722
S113057000E100E01F2318401E3B8340181C802329
S1130580014AD0507047C04600E100E030B583B066
S1130590002827D0002925D000234B600B60436836
S11305A00C1C051C002B20D09A68002A1AD09269D2
S11305B0002A17D0186869469047002813D1009B79
S11305C06360AB68002B14D09A68002A0AD0926941
S11305D0002A07D0186869469047002803D1009B79
S11305E0236000E0012003B030BD01235B424B6077
S11305F0E7E701235B4223600020F4E70123037053
S113060043708370C37000207047C04610B5002843
S113061024D0041C0068124B0201D35C012B05D0CA
S11306200023A36102F0C8F8002010BD6368002B0A
S113063007D09A68002A11D0186800280ED0D36910
S11306409847A368002B07D09A68002A06D0186838
S1130650002803D0D36998472068E1E70120E4E744
S1130660D80C002070B500280BD0002909D00668EA
S1130670124C35012C5D0525013C042C03D9281CA2
S113068070BD0125FBE70E4CA44666447601B4799F
S1130690E4060AD5002A0ED043689A68002AF0D0EE
S11306A01B685D425D41ADB2E9E719430123023D98
S11306B00B42E4D1EEE70025E1E7C046D80C002068
S11306C000380002F8B54646151C4F46041CC0B459
S11306D062682B1C0E1CFFF7C5FF002810D1002DEB
S11306E00ED002212268184BD7187F01BB79120162
S11306F0DB06DB0FCB1A9846144BD35C012B03D0DB
S11307000CBC90469946F8BD63689946002BF7D017
S1130710281C414606F076FC0D4A031E93420FD86E
S1130720391C42461131022A0CD0012222754A4654
S1130730484692689BB254680068321CA047DFE7C1
S1130740131CEDE70139F0E700380002D80C002053
S1130750FFFF0000F0B55F4656464D464446F0B4F0
S113076087B0002A08D10325281C07B03CBC90465A
S11307709946A246AB46F0BD002971D14B4B914638
S11307805B69002600934A4B03909846002301932B
S1130790FF330293474B45469A46012005A9009B27
S11307A0984780460028DED14B462C88059F5C4341
S11307B0381C211C06F026FC002814D0431E9B463E
S11307C0FF2B10D8211C41433A4B780A5843490A5D
S11307D006F018FC384B9C466044504503DA5B46EF
S11307E0824602930196013606350D2ED5D1314B42
S11307F045469A45B7D0314A03249446039B019950
S11308006344580183788C46A34383706B461A7AF9
S11308104B00274963448C460121427040225B000F
S113082063449E780E40B701C67996433E43C67131
S1130830DE78303A0E403701C67996433E43C6719E
S113084008261A790A40D100C279B2430A43C27118
S11308505B7923401A1C0378A3431343037083E793
S1130860164B40229C46FF23604440014370C379E9
S11308709343C371C379383A9343C3710378053AF8
S113088093430370837893430222134383700229B2
S113089005D01022C37900259343C37164E7102364
S11308A0C27900251343C3715EE7C046749B000000
S11308B0B498000010270000F0D8FFFF00380002B1
S11308C0F0B546464F46151C041CC0B4A26883B05C
S11308D02B1C0E1CFFF7C6FE002803D1E36808306A
S11308E0002B04D003B00CBC90469946F0BD22689E
S11308F040491301585C012801D00020F2E7CB18CD
S11309005978002900D158703B4B9C46022362441D
S113091052019779FF06FF0FDF1BA3689946002B4E
S11309205ED0012D5CD9EB1BF318E3600F239846CE
S113093027619044022F58D0391C281C06F062FB12
S11309404A46031C916810682C4A013B934200D923
S1130950131C4D689BB2311C4246A8470028C1D1E4
S1130960254923688C4663445A01202391780B431C
S113097093702568002D36D00720092D00D0033050
S113098040B2FFF7EDFD6A4680201B4B4042EB1856
S11309905B019978C9B2D1719978C9B2D17199784A
S11309A0C9B2D171997801439970D3792268002A28
S11309B0A3D0114BF7199C466244E7605201937926
S11309C03178DB0606D41379DB09FCD089B2D181F6
S11309D0002087E71379DB09FCD0D170002081E780
S11309E0E6602561C1E70320CAE7013B98469044CD
S11309F0A2E7C046D80C002000380002FFFF000028
S1130A0070B582B0002800D1B0E004680E1C051C4B
S1130A10002C00D195E0092C00D187E00A20FFF7D3
S1130A20A9FD002C00D18FE0092C00D181E00A201F
S1130A30FFF7A0FD002C00D189E0092C00D17BE058
S1130A400A20FFF797FD002C00D183E00A20092C2F
S1130A5000D174E040B2FFF78DFD6A467F20444B1D
S1130A60E3185B019978C9B291719978C9B291710F
S1130A709978C9B2917199780140997099787B38C5
S1130A808143997099783C30814399709379384ABD
S1130A90202194462B6863445B019A788A439A70B8
S1130AA02B68103963445B019A788A439A706346D1
S1130AB0032228680021C3185B019C78224203D0DA
S1130AC0D979C906C90F511A321CFFF743FE284AC7
S1130AD02B689446102263445B019978061C0A43F0
S1130AE09A702C68002C3CD0092C35D00A20FFF7D2
S1130AF037FD002C38D00A20092C30D040B2FFF743
S1130B002FFD6A461A4BE3185B019978C9B2D1717B
S1130B109978C9B2D1719978C9B2D17140219878C4
S1130B200143301C9970D37902B070BD0720FFF7E0
S1130B3021FD0820FFF71EFD0620FFF71BFD0920FD
S1130B4088E70320FFF716FD0420FFF713FD0220BA
S1130B50FFF710FD05207DE70620FFF701FD0920C2
S1130B60CCE70220FFF7FCFC0520C7E70120DBE708
S1130B7000380002F0B55F4656464D464446F0B490
S1130B8089B0002817D0002915D0061C08680C1C51
S1130B9001F0A0FE051E06D12068624A0301D35C61
S1130BA00835002B09D0281C09B03CBC9046994656
S1130BB0A246AB46F0BD0125F5E7237A053D022B9D
S1130BC0F1D8A37A012BEED8637A022BEBD8E36930
S1130BD09846002B06D01B78002B00D045E36368B1
S1130BE0002BE0D001F0CAFD051E01D00A25DAE78A
S1130BF0E36822697360B260002B47D09A6801925F
S1130C00002AD8D01A689446002AD4D05B68002BF6
S1130C10D1D01A68002ACED09778D078B9460C275C
S1130C20BA464F4651468F4308218B4659460F43D7
S1130C303F21B94657460140B943D1704F46DF21A1
S1130C400F409770217A022900D10AE23027D17827
S1130C50B943D17022689246002A01D0092AAAD148
S1130C6003AA171C934607CB07C706CB06C75246F1
S1130C702D4B60469B5C5A46137100235371019BB4
S1130C8059461B68984700284AD12269002A4FD048
S1130C9093680193002B8ED013689C46002B8AD056
S1130CA05368002B87D01A68002A84D00C27BA46D0
S1130CB03337BB46D17890780F1C59460F405146C4
S1130CC08F4308218B4659460F4351468843D770BA
S1130CD0011C2027B9439170217A022900D1B7E27F
S1130CE03027D178B943D17022689246002A02D0C5
S1130CF0092A00D05FE703AA171C934607CB07C74E
S1130D0006CB06C75246094B60469B5C5A46137194
S1130D1000235371019B59461B689847002807D04C
S1130D20051C40E7D80C0020A89800000499000096
S1130D3023680120994605F0E1FC1F224946511A17
S1130D401E3A8A40DF48036893430360012005F09C
S1130D50B3FCDD4A23689446062263445B011A7798
S1130D6023689946002B00D184E1092B00D08CE143
S1130D700720FFF7FFFB0820FFF7FCFB0620FFF727
S1130D80F9FB092040B2FFF7F5FB7F20CE4B02AA06
S1130D904B445B019978C9B2D1709978C9B2D170CA
S1130DA09978C9B2D17099780140997099787B3853
S1130DB08143997099783C3081439970D378C24AC1
S1130DC010219446236863445B019A788A439A709D
S1130DD02368103163445B019A788A439A702368CC
S1130DE0002B00D176E1B84A0121944663445B01AB
S1130DF09A8A8A439A824346002B00D1FEE09B786C
S1130E00002B00D123E1B04A802194462368494253
S1130E1063445B01DA790A43DA714346DB78002BD9
S1130E2000D1F4E0A84A23689446202263445B017D
S1130E30D9790A43DA7100221A72A34A012194462D
S1130E40E3699846236863445B015A7A8A435A7279
S1130E5023687E3163445B015A7B0A405A732368DA
S1130E603F3963445B015A7B8A435A73637A002B8C
S1130E7000D1D8E02022236863445B0119780A4337
S1130E801A70637A012B00D171E18F4A10219446C4
S1130E90236863445B011A788A431A70237A012B0E
S1130EA000D15BE1022B00D17AE1874A40219446CC
S1130EB0236863445B011A788A431A701022997973
S1130EC00A439A71A37A012B00D13DE17E4A08219D
S1130ED09446236863445B011A788A431A70E37A60
S1130EE0002B00D1A9E0784A236894460222634487
S1130EF05B01597B0A435A734346002B00D15DE1E1
S1130F001B780021002B05D0022B00D1A9E1032B73
S1130F1000D1A8E120686268FFF71CFC032800D117
S1130F2054E143465B78002B00D02AE1664A032053
S1130F3094460222236863445B01997811409A78AD
S1130F4082430A439A702368002B11D101225F491E
S1130F508B8A5B081A42FBD101215C48838A5B4A75
S1130F609B081942FAD10123918A0B439382236887
S1130F70554A0821944663445B019A8A01208A43B6
S1130F8000219A82A2692368F2616269504FB261BA
S1130F901A013360F16031613175B854BF18102201
S1130FA0634479707E605B0199780A439A7024687F
S1130FB0002C00D147E1092C00D13FE10A20FFF7C2
S1130FC0CFFA002C00D141E10A20092C00D138E1EC
S1130FD040B2FFF7C5FA3C4B03AAE3185B019978CA
S1130FE0C9B211709978C9B211709978C9B21170E7
S1130FF040219878014399701378D4E5324A7F21CF
S11310009446236863445B01DA790A40DA712E4A14
S113101020219446236863445B01DA798A43DA71B8
S113102000221A7209E7284A20219446236863445F
S11310305B011A788A431A7023E7234A02219446F3
S1131040236863445B015A7B8A435A7354E71E4AFC
S11310507F219446236863445B01DA790A40DA719C
S1131060DBE63020D178814389461021484601438C
S1131070D170EFE50320FFF77DFA0420FFF77AFA39
S11310800220FFF777FA05207CE60A20FFF772FAC0
S11310904B46002BF1D0092B00D16CE60A20FFF758
S11310A069FA4B46002BEBD0092B00D166E60A20E7
S11310B0FFF760FA4B46002BE5D00A20092B00D03D
S11310C060E65EE60070044000380002000007405D
S11310D0D80C0020724A1F39938A8B4393820222D0
S11310E0236863445B01998A0A439A822369002B2B
S11310F000D1CAE023686B4A63445B01998A0A40C1
S11311009A82694A2368944663445B019A8A6749D0
S11311100A439A82236863445A010423918A0B4345
S113112001219382938A9B081942FBD12369002BE6
S113113000D1A0E05C4AF0219446236863445B013B
S11311409A8A8A439A8256E6574A23689446082222
S113115063445B0119780A431A70C0E6524A236853
S11311609446402263445B0119780A43A5E64E4A3B
S113117023689446102263445B0119780A431A7069
S11311808CE6494A032094460122236863445B01A8
S11311909978014011439A7882430A439A70D2E6BF
S11311A0414A40219446236863445B011A788A4388
S11311B01A709A7930398A439A7183E6206800213B
S11311C06268FFF7C7FA032800D0AFE6364A032067
S11311D094460222236863445B01997811409A780B
S11311E082430A439A707368002B03D09A68186884
S11311F0D3699847B368002B03D09A681868D369F9
S11312009847294A7F2194462368012063445B015F
S1131210DA790A40DA71256805F070FA1F23591B40
S11312201E3B8B40224803250268134303600120C0
S113123005F042FA206801F0B3FAB4E40620FFF79F
S11312408FF90920C4E60220FFF78AF90520BFE6DA
S11312503020D17881438946102148460143D1701A
S113126042E5022156E6032154E6023B012B00D855
S1131270B8E4032597E40C4A23689446F0226344B7
S11312805B01998A0A439A82B5E5074AF02194469C
S11312902368090163445B019A8A0A439A8230E70E
S11312A000000740FFF0FFFF0038000200F0FFFFDE
S11312B000700440F0B55F46444656464D467B4AAE
S11312C00301F0B4D3185C6885B023688346002B0F
S11312D01ED11027764A5A445201D58AED04ED0EE8
S11312E07F1B0226724AA0689A1852019179C90696
S11312F0C90F711A00286CD0002D0CD02369002B63
S113130019D005B03CBC90469946A246AB46F0BD08
S113131000270025E5E7E3681D781379DB09FCD095
S1131320ABB2D381E268236994465B1A61442361BA
S1131330E160002BE5D15E46002E00D190E0092E3D
S113134031D00A20FFF70CF9594BF5186D01AA7832
S113135002ABD2B29A71AA780633D2B21A70AA78C2
S1131360D2B21A700422A9780A43AA701B78002EFC
S113137000D189E00A20092E29D040B2FFF7FAF8FB
S11313807F21AA7802ABD2B2DA71AA780733D2B23B
S11313901A70AA78D2B21A70AA780A40AA701B7876
S11313A00023E360ADE7434D0820FFF7D9F8AA789E
S11313B002ABD2B29A71AA780633D2B21A70AA7862
S11313C0D2B21A700422A9780A43AA701B780720A3
S11313D0D3E72269002A64D001229046FE32002617
S11313E09446354D002B01D1002F53DDE2680129CD
S11313F033D012889146002B13D02D4A4046924692
S113140053445B019A79120910421ED04A46684639
S1131410C271C27991461A79D209FCD04A46DA706F
S113142008E02B79DB09FCD063464A461A40224B7C
S1131430013FDA812369E2685B1A52187618236146
S1131440E260B34222D92368CCE71A79D209FCD0EE
S11314504A46D205D20DDA81ECE712789146CAE702
S1131460154D0420FFF77CF8AA7802ABD2B29A712A
S1131470AA780633D2B21A70AA78D2B21A700422A9
S1131480A9780A43AA701B78032076E72268002A09
S113149000D034E77F21084A13790B401371236984
S11314A02DE7002B00D046E7F4E7C046D80C002017
S11314B0003800022001074000000740F0B55646FE
S11314C04D465F464446364A0301F0B4D3185E687D
S11314D085B033688146002B4FD11F25314F4F44CF
S11314E07A01D28A15402F4A02219446012263448C
S11314F05B019B791B091340CB1A9A467368002B36
S113150002D0337D002B3CD101239B46FE33984609
S11315107F01013D1ED33368002B22D143463C8A10
S11315201C40B369002BF4D04A4600924246224044
S11315300292F26969460392802268460A719847CA
S11315405346022BE5D1240A02946846B3699847AE
S1131550013DE0D205B03CBC90469946A246AB465C
S1131560F0BD5A46BB791B091A4203D13C8AE405F3
S1131570E40DD6E77C79E4B2D3E70A4F01254F4462
S1131580B1E70021B3693175002BBDD00291F16937
S113159048460391694600900A7168469847B3E744
S11315A0D80C002000380002F0B51A4E050173195A
S11315B087B0041E5F682AD00820092C25D140B2C8
S11315C0FEF7D8FF6A460420134BE3185B019978B1
S11315D0C9B2D1719978C9B2D1719978C9B2D171AE
S11315E0997881439970D379BB69002B08D0002284
S11315F002A8826002320271FA690294C2609847BA
S1131600002375196B7007B0F0BD0230D7E70420D2
S1131610D5E7C046D80C002000380002FF2130B5C1
S113162040241A4A0301D3185D68194B85B0C318C6
S11316305B011A8A11401A79A2431A711A793F3C44
S1131640A2431A711A79520914420DD06A46202312
S11316501371AC69002C05D0EB6900909160D360E4
S1131660101CA04705B030BD1A791209144206D0E7
S11316701B7F6A461C4206D110231371E9E76A46B0
S113168004231371E5E708231371E2E7D80C002063
S1131690003800021F2318401E3B8340181C014BD6
S11316A01860704700E100E01F2318401E3B834090
S11316B0181C8023014AD0507047C04600E100E066
S11316C0012343700370C370837000207047C046C9
S11316D0F0B55F4656464D464446F0B48DB00029F9
S11316E000D14DE1002800D14AE1019008680C1CAA
S11316F001F0F0F8002807D12668AF4B370198466F
S1131700DB5D0830002B06D00DB03CBC90469946FA
S1131710A246AB46F0BDA94B9A46B30099469B1925
S11317209B0053449B78002BEED1301C01F026F82B
S1131730031C0A20002BE7D16369002B40D09A6870
S11317400392002A00D11BE11A680492002A00D1F6
S113175016E15B681D1E00D112E11A68002A00D14F
S11317600EE121680591002902D0092900D007E182
S11317700C239078D178984308239B465B46184302
S11317803F231940A03318400C2399432433994331
S11317902B1C9070D17007AA029223CB23C203CBD7
S11317A003C2874B059A04989B5C029A1371002329
S11317B093605371039B111C1B6898470028A3D1A5
S11317C02369002B00D1F3E09A680392002A00D128
S11317D0D6E01A680492002A00D1D1E05B68002B9D
S11317E000D1CDE01A68002A00D1C9E02168059132
S11317F0002902D0092900D0C2E0D078834690782D
S11318005946051C0C208446333008406146884301
S11318108346281C88431431884390705946082015
S1131820084330218843D07007AA029223CB23C2F5
S113183003CB03C2634B059A04989B5C029A137111
S1131840002393605371039B111C1B689847002865
S113185000D059E7012004F051FF01201F23021C8E
S11318609B1B9A405849131C0D682A1C9A430A6012
S113187004F022FF002E00D18FE0092E00D181E078
S11318800A20FFF711FF002E00D189E0092E7CD039
S11318900A20FFF709FF002E00D184E0092E77D03B
S11318A00A20FFF701FF002E00D17FE00A20092E55
S11318B071D040B2FFF7F8FE444B7F21F3185B016F
S11318C09B469A7806ABD2B29A705A469278023303
S11318D0D2B21A705A4692780120D2B21A705A467D
S11318E092780A4059468A708A7804218A43594674
S11318F08A708A7840218A4359468A701B7801236A
S11319008A8A9A438A828A799A438A714A7A9A435A
S11319104A720A78802149420A4359460A704A7B2E
S11319209A43131C4B73E36806AA1D1C04930023FB
S1131930D370274B02995A690292904700281CD110
S1131940002D1AD00A2E18D8079B019D0593214B10
S1131950039300230293039B05981988049B59431E
S113196005F050FB0138FE2836D9029B039A013357
S1131970063202930392042BEDD1301C00F010FFC9
S11319800120C1E60720FFF78FFE0820FFF78CFE39
S11319900620FFF789FE09208BE70320FFF784FE6A
S11319A00420FFF781FE0220FFF77EFE052080E77A
S11319B007AB02934EE7C046D80C00201C08002059
S11319C02C9900006899000000700440003800025F
S11319D0749B0000389900006B461B7A06AAD370EA
S11319E00321D3785A460B40C0B250701A1C5B4690
S11319F01B7801958B4313435A46137093788B439A
S1131A0093702379013B59425941E2798B00002AB2
S1131A1001D1102213436279012A2DD0002A05D165
S1131A20A17980321A4301292CD0131C5A465373CE
S1131A30237A002B04D19379082213435A469371D5
S1131A4003234246D3554B46524601219B19A069B4
S1131A509B00D218D060E069917010615246F6B2D2
S1131A60D654019A47441670636991709360236950
S1131A70002053607A6047E6A279002AD6D140322A
S1131A801343D3E7C0221343D0E7C04670B582B0F6
S1131A90002800D16CE0047804200A2C01D902B09B
S1131AA070BDA5003E4E2B199B00F3189B780330A4
S1131AB0002BF4D0002C5DD0092C66D00330FFF746
S1131AC0F3FD002C59D0092C62D00A20FFF7ECFD5D
S1131AD0002C55D0092C5ED00A20FFF7E5FD002C20
S1131AE051D00A20092C59D040B2FFF7DDFD6A46D7
S1131AF07F202C4B2D19E3185B019978AD00C9B2F6
S1131B00D17199787619C9B2D1719978C9B2D17164
S1131B1099780140997099787B38814399709978C4
S1131B203C3081439970D37900221F4923015A54D0
S1131B30CB185A705A609A60B2703F3804F0DEFDD8
S1131B401F23191B1E3B8B40184802681343036074
S1131B50012004F0B1FD6000154B0019C0001818F5
S1131B60153004F077FD201C00F01AFE002096E7E3
S1131B70012094E70320FFF797FD0420FFF794FD6D
S1131B800220FFF791FD0520AEE70720FFF78CFD4B
S1131B900820FFF789FD0620FFF786FD0920A3E74B
S1131BA01C08002000380002D80C002000700440FB
S1131BB0E4080020F0B55F4656464D464446F0B46E
S1131BC085B098460EAB1B7804789B460FAB1F7804
S1131BD0A30092461B19B34A9B00D3189B78061C9A
S1131BE089460725002B07D1281C05B03CBC90462C
S1131BF09946A246AB46F0BD630000931819AA4B60
S1131C00C0009C466044153004F00CFD051E01D054
S1131C100A25E9E7002C00D1C0E0092C00D1B2E08C
S1131C200A20FFF741FD002C00D1BAE0092C00D1B5
S1131C30ACE00A20FFF738FD002C00D1B4E0092CF9
S1131C4000D1A6E00A20FFF72FFD002C00D1AEE062
S1131C500A20092C00D19FE040B2FFF725FD934BE9
S1131C607F21E3185B01181C01939A7802ABD2B26E
S1131C705A7182780533D2B21A708278D2B21A704D
S1131C8082780A400421827082788A4340218270DB
S1131C9082788A43827040461B78009B1A19824BD3
S1131CA0D2009B18D8600020191C1881588158460E
S1131CB010318C46494618747B48815052465A600C
S1131CC06346DF7001233B4200D1002362469370D8
S1131CD0754A009B944600221B19DB00634401995A
S1131CE05A744B7B103293434B73201C00F08CFED0
S1131CF07368002B04D00222391C9143012958D067
S1131D00B368002B03D0BA1E012A00D8A4E0002C2B
S1131D1000D184E0092C61D10620FFF7BBFC092027
S1131D20FFF7B8FC019802AB82780633D2B21A707E
S1131D308278D2B21A708278D2B21A704022817834
S1131D400A4382701B78072040B2FFF7A3FC80216E
S1131D50019802AB82784942D2B2DA7182780733B1
S1131D60D2B21A708278D2B21A7082780A43827020
S1131D701B7830238278134383707368002B67D0F9
S1131D80019B5B7930E70720FFF78EFC0820FFF703
S1131D908BFC0620FFF788FC09205DE70320FFF792
S1131DA083FC0420FFF780FC0220FFF77DFC052064
S1131DB052E7996818683E4B32789C465201624457
S1131DC0934643466A464968138013888C465A46AC
S1131DD04946E047002893D0051C05E70A20FFF791
S1131DE059FC002C1ED0092C99D00A20FFF752FC74
S1131DF0019802AB82780633D2B21A708278D2B2DA
S1131E001A708278D2B21A70402281780A438270A2
S1131E101B78002C1AD00A20092C95D193E70220B4
S1131E20FFF738FC0520FFF735FC019802AB8278F8
S1131E300633D2B21A708278D2B21A708278D2B2D1
S1131E401A70402281780A4382701B7803207BE752
S1131E50B368002B94D1C7E6424669460A800A88D3
S1131E60186890469A68134B31789C465368490128
S1131E70614452469C464346E0470028ACD1022FB9
S1131E8000D044E77368002B00D140E700219A6832
S1131E901868576843460A1CB847002800D136E73B
S1131EA0051CA1E61C080020E408002000380002FC
S1131EB0030007400500074030B5041C83B001202F
S1131EC0002C01D0012B01D003B030BD002AFBD07F
S1131ED0257803300A2DF7D81D1C131C0A1C022177
S1131EE0201C019100950021FFF764FEECE7C04639
S1131EF030B5041C83B00120002C01D0012B01D08B
S1131F0003B030BD002AFBD0257803300A2DF7D862
S1131F101D1C201C131C009501950022FFF74AFE8E
S1131F20EEE7C04670B582B0041C06A8057801200F
S1131F30002C01D0012D01D002B070BD002BFBD0CC
S1131F40267803300A2EF7D8201C03240095019428
S1131F50FFF730FEF0E7C046F0B556464D4644461E
S1131F605F46F0B44700CA4D3B18DB00EA58EB1853
S1131F700E1C191C92465A68041C91461A7C89B09E
S1131F8090460201C34810318218526890680028B4
S1131F9000D1C9E0012E00D119E1022E06D009B00A
S1131FA03CBC90469946A246AB46F0BD53685B687C
S1131FB01B68DB89002BF2D13022B74BE61876017F
S1131FC0B3789343B370002C00D155E1092C00D1B0
S1131FD031E10A20FFF768FB002C00D14FE1092C06
S1131FE000D12BE10A20FFF75FFB002C00D149E16F
S1131FF0092C00D125E10A20FFF756FB002C00D163
S113200043E10A20092C00D11EE140B2FFF74CFB4A
S11320107F21B27804ABD2B21A70B2788846D2B2B9
S11320201A70B27805A8D2B21A70B27805940A4030
S1132030B270B2787B398A43B270B2783C318A4349
S1132040B2701B7801230371A300944A1B199B00EF
S1132050D3181A69DB68826089469847002C00D13E
S11320604FE1092C00D11DE10A20FFF71DFB002CD4
S113207000D149E1092C00D117E10A20FFF714FB34
S113208002A98C4609234946B2786344D2B21A7035
S1132090B278D2B21A70B278D2B21A70B2788A43D5
S11320A0B2701B78002C00D143E1092C00D111E15E
S11320B00A20FFF7F9FA02A98C460A234146B278AE
S11320C06344D2B21A70B278D2B21A70B278D2B271
S11320D01A70B2781140B1701B78002C00D13DE128
S11320E00A20092C00D10AE140B2FFF7DDFA02A967
S11320F08C460B230421B2786344D2B21A70B278AE
S11321003819D2B21A70B278C000D2B21A70B2784A
S113211028188A43B27030221B78B3781530934361
S1132120B37004F097FA3AE75068002800D031E71A
S1132130594A9346A3445A465201012E00D125E13F
S113214052790A715A89013292B25A810B799C46AA
S11321503B19DB00EB181989D86881420CD29B7CAF
S1132160002B00D122E14346012B00D1EDE13B19C4
S1132170DB00EB18013119813B19DB00EB185B7CA8
S1132180002B03D04346012B00D1D8E13B19DB00DF
S1132190EB18DB68934200D132E1012E00D0FEE659
S11321A03B19DB00EB18DA7C920700D4F7E65A46B9
S11321B05201527B9208164203D01B89012B00D88E
S11321C0EDE601233C19E4002D196B74E7E6002CBD
S11321D000D1C5E0092C39D00A20FFF765FA7F2128
S11321E02D4BE5186D01AA7802ABD2B2DA71AA7848
S11321F00733D2B21A70AA78D2B21A70AA780A40F7
S1132200AA701B78002C00D1BEE00A20092C31D022
S113221040B2FFF73FFAAA7805ABD2B21A70AA7897
S1132220D2B21A70AA78D2B21A700422A9780A43D8
S1132230AA701B78B3E60720FFF736FA0820FFF7E9
S113224033FA0620FFF730FA0920DEE60720FFF70D
S11322502BFA7F21124D02ABAA780733D2B21A703F
S1132260AA78D2B21A70AA78D2B21A70AA780A409E
S1132270AA701B780820CBE70320FFF715FA042087
S1132280FFF712FA0220FFF70FFA0520BDE6C04659
S1132290E4080020D80C0020003800021C080020AC
S11322A0200107400620FFF7FFF90920FFF7FCF99A
S11322B002A98C4609234021B2786344D2B21A7031
S11322C0B278D2B21A70B278D2B21A70B2788A43A3
S11322D0B2701B780720FFF7E7F902A98C460A239E
S11322E07F21B2786344D2B21A70B278D2B21A7033
S11322F0B278D2B21A70B2780A40B2701B78082051
S1132300F2E60220FFF7D0F90520FFF7CDF902A984
S11323108C4609234021B2786344D2B21A70B27851
S1132320D2B21A70B278D2B21A70B2788A43B2704A
S11323301B780320FFF7B8F902A98C460A237F21F2
S1132340B2786344D2B21A70B278D2B21A70B27848
S1132350D2B21A70B2780A40B2701B780420C3E675
S11323600320FFF7A1F97F21AA4D02ABAA78073316
S1132370D2B21A70AA78D2B21A70AA78D2B21A70EB
S1132380AA780A40AA701B78042041E70192507988
S1132390C0B20871527B8446920816420ED01A1CB1
S11323A01B890832002B09D15288D1E65B465801BB
S11323B00379DB09FCD0FF23C370D8E6002C00D1DD
S11323C0CEE00720092C00D0033040B2FFF76CF9AF
S11323D07F21019802AB82780333D2B21A708278DB
S11323E0D2B21A708278D2B21A7082780A4082709D
S11323F01B783B19DB00EB185A891B7D9C46A7E62A
S11324005B465B01984630229B7893434246937027
S1132410002C00D1B1E0092C00D1A3E00A20FFF781
S113242043F9002C00D1ABE0092C00D19DE00A2037
S1132430FFF73AF9002C00D1A5E0092C00D197E070
S11324400A20FFF731F9002C00D19FE00A20092C63
S113245000D190E040B2FFF727F943469A7803ABE6
S1132460D2B21A70424692787F21D2B21A70424692
S11324709278D2B21A70424692780A4041468A70E3
S11324808A7804218A4341468A708A7840218A43A3
S1132490894641468A701B78A3005F4A1B199B003A
S11324A0D318DA68002A43D001211B6905A80594D2
S11324B0017183609047002C00D18EE0092C67D114
S11324C00620FFF7F1F80920FFF7EEF843469A7863
S11324D002ABD2B25A71424692784021D2B25A71BA
S11324E0424692780533D2B21A70424692788A43B1
S11324F041468A701B78072040B2FFF7D5F843465F
S11325009A7802ABD2B29A71424692787F21D2B2C3
S11325109A71424692780633D2B21A704246927841
S11325200A4041468A7030221B788B7893438B7023
S11325303819C0002818153004F08CF82DE64B46E5
S113254061469B18013B197020E653465B5C9A4632
S11325505B4658010379DB09FCD05346C37006E699
S1132560032032E70720FFF79FF80820FFF79CF8C5
S11325700620FFF799F809206CE70320FFF794F889
S11325800420FFF791F80220FFF78EF8052061E799
S11325900A20FFF789F8002C22D0092C93D00A20B6
S11325A0FFF782F843469A7802ABD2B25A71424698
S11325B092784946D2B25A71424692780533D2B2E1
S11325C01A70424692788A4341468A701B78002CDE
S11325D01ED00A20092C8FD18DE70220FFF764F862
S11325E00520FFF761F843469A7802ABD2B25A71DC
S11325F0424692784021D2B25A71424692780533CB
S1132600D2B21A70424692788A4341468A701B7845
S1132610032071E7000007401C080020830010B568
S11326201D4A1B189B00D318DA6884B0041C002AC6
S113263010D01A4B0190C3185B0119790120890647
S113264015D41979C908084215D0052369460B72B7
S113265001A890476000124B0019C00018181530EB
S113266003F0F8FF201C00F09BF804B010BD062313
S113267069460B72ECE7597B0909084207D11B79BB
S11326801B091842E4D0072369460B72E0E70323D1
S113269069460B72DCE7C0461C08002000380002C3
S11326A0E40800201F2318401E3B8340181C80238D
S11326B0014AD0507047C04600E100E008B5074B1E
S11326C00201D35C012B06D0032B00D008BD0121ED
S11326D0FFF742FCFAE7FEF7EDFDF7E7D80C002020
S11326E010B50B4B0201D35C041C012B0DD0032B42
S11326F008D0084B38229C466444640123799343F0
S1132700237110BDFFF78AFFF3E7FEF787FFF0E7B9
S1132710D80C00200038000208B5074B0201D35C36
S1132720012B06D0032B00D008BD0221FFF714FCB7
S1132730FAE7FEF739FFF7E7D80C002038B50D4B60
S11327400201D55C041C012D06D0032D00D038BD38
S11327500021FFF701FCFAE7FEF7B0FE064B40222A
S11327609C46644464012379934323712379AB43E6
S11327702371ECE7D80C00200038000208B50928C2
S113278007D00430C0B203F069FF082806D0002047
S113279008BD033803F062FF0828F8D10A20F7E7E0
S11327A008B5092804D00430C0B203F073FF08BD93
S11327B0033803F06FFFFAE770B5041C82B00028F9
S11327C000D175E0092868D00A20FFF76BFF002CC0
S11327D000D170E0092C63D00A20FFF763FF002CBE
S11327E000D16BE0092C5ED00A20FFF75BFF002CC0
S11327F067D00A20092C59D040B2FFF753FF6A462C
S11328007F250420304B0732E3185B0199780326B7
S1132810C9B211709978C9B211709978C9B211709E
S113282099782940997099788143997099783C30C6
S113283081439970102112789A7820388A439A70CB
S11328400222997881439970997811409A78B24319
S11328500A439A70DA792A400025DA71DA798243D8
S1132860DA711F381D7203F049FF1F2301211B1B5E
S113287099400B1C1548026813430360012003F0C0
S11328801BFF201CFFF78CFF114B2401E5541C197E
S113289065706560A56002B070BD0720FFF702FF98
S11328A00820FFF7FFFE0620FFF7FCFE0920A3E740
S11328B00320FFF7F7FE0420FFF7F4FE0220FFF7E2
S11328C0F1FE052098E7C04600380002007004407D
S11328D0D80C0020012804D90938431E98418000EF
S11328E070470020FCE7C04600B5002083B0FFF726
S11328F0E5FE032003F002FEC323034A9B00D358E2
S11329000193019B03B000BD0060004000B50920A5
S113291083B0FFF7D3FE072003F0F0FDC723034A7B
S11329209B00D3580193019B03B000BD006000409D
S113293000B5002083B0FFF701FF022003F0DEFDA5
S1132940C223034A9B00D3580193019B03B000BDEB
S11329500060004000B5092083B0FFF7EFFE0620B9
S113296003F0CCFDC623034A9B00D3580193019B7B
S113297003B000BD0060004000B5002083B0FFF745
S1132980AFFE052003F0BAFDC523034A9B00D358CC
S11329900193019B03B000BD0060004000B5092015
S11329A083B0FFF79DFE092003F0A8FDC923034A65
S11329B09B00D3580193019B03B000BD006000400D
S11329C000B5002083B0FFF7A7FE042003F096FDB6
S11329D0C423034A9B00D3580193019B03B000BD59
S11329E00060004000B5092083B0FFF795FE082081
S11329F003F084FDC823034A9B00D3580193019B31
S1132A0003B000BD0060004008B500280BD00928C1
S1132A1008D1072003F072FD062003F06FFD0920A2
S1132A2003F06CFD08BD032003F068FD022003F0F1
S1132A3065FD052003F062FDF4E7C046FF23021C98
S1132A409A43131C01290DD0802149028140080CAE
S1132A5000210004064A1B0A94465B0163440843B0
S1132A601860704781400804010C0020F2E7C0465A
S1132A7008000440044B000A9C46120440016044D0
S1132A80114301607047C04608000440034B000A2C
S1132A909C46400160440068000C704704000440F8
S1132AA0044B000A9C4612044001604411434160F7
S1132AB07047C04608000440FF22030A1B0110406F
S1132AC01818044B80009C46604400688007C00FBF
S1132AD07047C04600080440034B000A9C4640016E
S1132AE06044006880B2704704000440034B000A4D
S1132AF09C4640016044006880B270470000044076
S1132B00054B000A9C464001604403681B0C1B04EF
S1132B100B4303607047C046000004400022014B91
S1132B201A807047D4090020FF22030A1B011040B9
S1132B3018181A4B80009C4630B56044EFF310849B
S1132B4072B6174B1A8892B2002A03D1154DEA7057
S1132B504032EA701A88013292B21A8084F31088E3
S1132B600468CA0304D5104A14400A400460026091
S1132B700160EFF3108172B61A88002A03D01A8814
S1132B80013A92B21A801B889BB2002B03D1054AEA
S1132B90D3708033D37081F3108830BD00080440B3
S1132BA0D4090020000D0440FFFFFEFF08B5030A0E
S1132BB01A01FF230340D318084A9B009446634438
S1132BC01B68002906D004211943054B1940FFF75F
S1132BD0ABFF08BD04229343191CF6E70008044028
S1132BE0D5FC011F012343700370C3708370002060
S1132BF07047C0460620704738B5002813D00388B4
S1132C00051C0024002B0CD06A68E300944663443E
S1132C1098881968FFF788FF01342B88A4B2A3426F
S1132C20F2D8002038BD0120FCE7C046054A08B5AB
S1132C300323904201D9181C08BDFFF775FF002338
S1132C40F9E7C04602090000084A10B50323904280
S1132C5001D9181C10BD002905D00C1CFFF72CFF4E
S1132C6000232070F5E70123F3E7C04602090000C2
S1132C70902210B503231201904201D9181C10BDF3
S1132C80002905D00C1CFFF727FF00232080F5E75F
S1132C900123F3E710B50323002A01D1181C10BD4A
S1132CA090242401A042F9D80B1C11409A43FFF749
S1132CB0E1FE0023F2E7C04608B50323012901D948
S1132CC0181C08BD034A9042FAD8FFF7B7FE002348
S1132CD0F6E7C0460209000070B50323002A01D1BB
S1132CE0181C70BD90242401A042F9D80E1C141C99
S1132CF0051CFFF7FBFE331C221C2340184381B242
S1132D00B2439143281CFFF7FBFE0023E8E7C046CB
S1132D1008B50323012901D9181C08BD034A9042B0
S1132D20FAD8FFF743FF0023F6E7C0460209000084
S1132D30902210B503231201904201D9181C10BD32
S1132D40002905D00C1CFFF7A1FE00232080F5E725
S1132D500123F3E70F4A70B50323904201D9181CED
S1132D6070BD002910D0FF26041CB0430D1CFFF7D2
S1132D708DFE01231A1C3440A24094B220408442A8
S1132D8004D000232B70EAE70123E8E72B7000232B
S1132D90E5E7C0460209000010B59024032324018E
S1132DA0A04201D9181C10BD002AFBD00B1C1140F5
S1132DB09A43FFF775FE0023F4E7C0460D4A08B5B1
S1132DC0031C0320934200D908BD0129FCD8FF222B
S1132DD0181C13409043012907D001229A40002176
S1132DE092B2FFF75DFE0020EEE79940002289B21F
S1132DF0F7E7C04602090000031E07D0027A09491A
S1132E00900041580720994202D070470120FCE706
S1132E10054B01219C4662441202D36A00208B4375
S1132E20D362F2E7D809002080074000031E07D0D0
S1132E30027A0949900041580720994202D070470C
S1132E400120FCE7054B00209C460123624412024A
S1132E50D16A0B43D362F2E7D8090020800740000F
S1132E6010B5031E09D0002907D0027A084894003F
S1132E70245807209C4202D010BD0120FCE7054BDA
S1132E8000209C4662441202936C0B60F4E7C04637
S1132E90D80900208007400082B0002806D0044BE7
S1132EA01B6803600020019302B070470120FBE718
S1132EB00C9A0000F0B51D1C002385B00393404B11
S1132EC0041C5B690F1C032003A9161C019398477B
S1132ED0062E00D972E03B4BB6009B599F460398DF
S1132EE000213A1C002304F059F9002C07D10023D7
S1132EF00A9A137000222860101C05B0F0BD002946
S1132F0057D0314F002301E0052B4CD08A078008AD
S1132F108E0801331043311CDBB2002EF4D1B842C9
S1132F20F2D8002CE4D0284903228842E4D8DFE711
S1132F30039A0023381C002104F050F9234A00238B
S1132F4004F02CF9002CDAD101277F420029D9D1D1
S1132F50CDE7039A381C0023002104F03FF91C4AF2
S1132F60002304F01BF9EDE7039A381C0023002129
S1132F7004F034F9FA220023920004F00FF9E1E797
S1132F80381C039A0023002104F028F9DAE7FA2216
S1132F9092007A4303980023002104F0FFF8A4E789
S1132FA0381C0021A1E70322002CA5D1002EA3D1B7
S1132FB09EE7054B98429AD9034FA3E703229BE768
S1132FC0749B0000AC990000FFFF000000CA9A3B0C
S1132FD040420F0070B5031C84B0002808D0047A66
S1132FE01A48A5002D5807209D4203D004B070BD97
S1132FF00120FBE704380029F8D00B2500236D4499
S11330002B7003930095201C03ABFFF753FF00289C
S1133010ECD10F4B01269C46072264442402E16A4A
S1133020E36AB343E3622B78E56A13401A06094B5B
S11330302B4013430A1CE362039B3240013B63664B
S1133040A064E36AB3431343E362CFE7D8090020E3
S113305080074000FFFFFFF870B5031C84B0002810
S11330600AD0002908D0027A214894002458072065
S11330709C4203D004B070BD0120FBE71D4B012628
S11330809C4662441202536E002201338B60237A01
S1133090039263441B02DB6A1B0E1840431EDBB21F
S11330A0042B02D8144A9B009E58144B0D1C5B69D8
S11330B003A90320019398470398311C03F0A2FF4E
S11330C00C4A686094460122237A63441B021B6BFA
S11330D013402B70237A63441B02DB6A1A4202D129
S11330E02A730020C6E7002300202B73C2E7C046E2
S11330F0D809002080074000C8990000749B000094
S113310038B5041C1D1C012A24D0002A17D0022A19
S113311001D0032038BD1C4B994212D0081C2A1C34
S11331200023002104F05AF8174A002304F036F86B
S1133130002C1DD1431C1ED100291CD106E099424C
S11331401ED160426041434210481843049B1860FA
S11331500020DFE76429F4D01A1C081C0023002196
S113316004F03CF86422002304F018F8002CE1D0A9
S1133170064B9842E0D00029CBD1A842C9D8E5E754
S1133180081C0021F2E7C046A0860100FFFF0000F2
S113319010B5031E07D0027A114992005258072035
S11331A09A4202D010BD0120FCE772B60D49137A91
S11331B08C4663441B02D96ADC6A06388443DC62A9
S11331C00024137A014063441B029C64137A634411
S11331D01B02DA6A82430A43DA6262B60020E1E73C
S11331E0D809002080074000002904D1002A10D00B
S11331F0012A32D070474B1C1BD0234B9C466044A1
S11332000002002A11D1026B204B13400363416575
S1133210F0E71D4B9C4660440002026B1B4B1340BD
S11332208022920213430363E4E7012A0FD08165ED
S1133230E0E7002A1DD0012ADCD1134BC0229C46B2
S113324060440002036B920413430363D2E7026BEE
S11332500F4B134003638165CCE70B4B9C466044E2
S11332600002026B0A4B134080229204134303634F
S1133270C0E7054BC0229C4660440002036B9202E7
S113328013430363B6E7C04680074000FFFFFCFF1B
S1133290FFFFFFFCF0B585B000281CD0067A01259D
S11332A00D2E02D9281C05B0F0BD1F1C002303936A
S11332B00A4B041CF3181B025B6E03A80090013335
S11332C0301CFFF71DFF051EECD1207A03993A1C30
S11332D0FFF78AFFE6E70125E4E7C04680074000E0
S11332E038B5031E07D0027A254D91006C5807208B
S11332F09C4202D038BD0120FCE7224BC0219C46F1
S113330062441202936B8B439363237ABF39634401
S11333101B02DA6A8A43DA62237A1B4AD25C50B20D
S1133320092823DD174A944663441B02D98E174AA1
S11333301140D986237A63441B02998E0A409A86E7
S1133340207A1A30C0B203F0A5F90122237A104979
S11333509A4008689B009043EA580860002A0DD000
S113336000210020116051605951C3E71F231A4006
S11333709140084A6133D150237AD3E70020B9E75A
S1133380D809002080074000049A0000FFFEFFFFD8
S1133390F409002000E100E0F0B557464E464546EA
S11333A0E0B486B000236A460493D373002900D1A5
S11333B0D0E0002800D1CDE04A7C0133062A06D9AA
S11333C0181C06B01CBC90469946A246F0BD1A32A1
S11333D0D7B2041C381C0D1C03F040F90823002844
S11333E0EED107336B44687C2A7A0093696804AB96
S11333F0FFF760FD061E00D0AEE06B69002B00D124
S11334007DE16A7CC6498A56092A00DD72E123609F
S1133410AB6963606E7CC34A26726B7C9B009C50D4
S11334202B78012B04D1B340BF4A11680B431360BE
S1133430012003F063F9002E00D092E02021BB4A62
S113344093688B439360012003F036F9B84A012155
S11334509446237A882063441B02DA6A8A43DA6238
S1133460A522237A120263441B021A6000221A6105
S11334705A615A61DA611A625A629A62DA621963AB
S113348002395A639A63DA631A649A64D9641965CF
S113349059659965596699661A50043019502B7804
S11334A005929046022B62D06B46A14A277A0226E7
S11334B0BC182402E06A9F4ADB7B02400120049985
S11334C0E262226B32432263226B02432263226B49
S11334D0B243226307221340E66A1A06964B33402E
S11334E01343E3624B1E63660023A364EE699A46AA
S11334F0002E06D03378002B00D089E0B378002B5F
S113350043D1C022A36B9343803A1343A3636B69F3
S1133510002B00D1C0E06B7C814A8848D25C88498A
S113352053B2C0339B001E58314019501F2313401F
S113353001229A40C021131C824A4900535013604F
S1133540AA7C0023002A00D13AE70122E16A0A4357
S1133550E26235E7012333E7381C03F09BF8331CA0
S11335602EE74021714A93688B4393606BE705AB68
S1133570207A2A7C0093E968049BFFF7C1FD031EAF
S113358000D01DE7059B98468EE70122F3781026AC
S11335901A401101A28E2878B2430A430321A2865D
S11335A00B409A01A38EB036B3431343A3860C2376
S11335B0A28E1343A386012800D180E0A38E0028A5
S11335C000D179E00C229343082213430122A386FD
S11335D0A38E381C8B431343A386226C5A4B41465B
S11335E013408022D202134323640122FFF7FCFD1F
S11335F04346002B74D1226B544B13408022920417
S1133600134323638022A38E52001343A38678E7D7
S1133610102172782B7810409C460301E08E884379
S11336201843E086032002409301E28EB0318A43BE
S11336301A430C23E286E28E1343E3866346012B8E
S113364033D06346002B2CD00C22E38E41469343A7
S1133650082213430122E386E38E83431343E38664
S1133660236C3B4A381C1340914680225202134378
S113367023640022FFF7B8FD4346002B26D14A46B7
S1133680236B134080229202134323638022E38E30
S113369052001343E38631E72B78012B00D04FE728
S11336A039E7E38E8343E386F0E75346E364032379
S11336B0E28E1343E386E9E78B43A386A2E7002364
S11336C023650323A28E1343A3869BE7434601335A
S11336D01AD04A46236B1340236343466365D5E7F8
S11336E04346013316D0226B184B134023634346E1
S11336F0A36587E7381C02F0CDFF0B2360E62A7828
S1133700012A00D086E67CE6C022236B9202134392
S11337102363BBE7C022236B92041343236371E743
S1133720049A0000D8090020F40900200070044025
S113373080074000FFFFF8FFFFFFFFF80060004034
S1133740FFFFFEFF00E100E0FFFFF3FFFFFFFFFCD0
S1133750FFFFFCFF012200B5124B83B01B6813422C
S11337600DD0114BD96A91430022D962C0219A64C9
S11337709A6B8A439A63DA6B80398A43DA63C1228B
S11337800A49920088580A4B03408B50094B1A6827
S11337901368002B03D0526868460092984703B020
S11337A000BDC046F40900200080074000600040CE
S11337B0FFFFFEFFD80900209623C022A5216D201B
S11337C010B5DB0182B00193264B52009950803A28
S11337D013399954985499549B5C922B40D0224CA1
S11337E003202368D96B00F05DFBC022A521ED20E6
S11337F01C4B52009950803A9339995498549954D7
S11338009B5C122B2AD0C022A521F720154B520015
S11338109950803A9D399954985499549B5C082B3B
S11338201AD023680620D96B00F03CFB0D490F4ADF
S11338300F4B8B528B5A002B06D10AE0019B013BA4
S113384001938B5A002B04D0019B002BF6D114203A
S113385000E0002002B010BDC046E2E7C046D2E757
S1133860C046BCE700C07E40F8090020B23F00001B
S113387000AAFFFF30B5822401250B4B64001A5DBA
S1133880AA431A558822040C52009C5280B2083A6A
S11338909852080C1832985089B2083A99528321E8
S11338A0043A995430BDC04600C07E40962230B5DB
S11338B0124952008B5808205B0600D430BD8A237D
S11338C0002001255B00C8540D4B1C68E36A63614A
S11338D08858800905420CD0101C0125002B02D108
S11338E009E0002B07D0013B63610A589209154295
S11338F0F7D10020E2E71420E0E7C04600C07E4094
S1133900F8090020014B18607047C046F8090020F0
S1133910EC220B4952008B5C01280AD0002804D009
S11339203F2003408B5400207047403803438B549E
S1133930F9E73E300340BF3803438B54F3E7C046F6
S113394000C07E409623962100B5DB0183B01A4A5D
S113395001934900535808201B0601D403B000BD4D
S1133960EE2300205B00D05053580130DB0918428D
S11339700ED0019B0120002B03D118E0019B002BEA
S113398015D0019B013B01935358DB091842F5D133
S11339909423094A5B00D158890604D4D3580122E0
S11339A09B081A4205D000F0F3FB1820D6E7142038
S11339B0D4E70020D2E7C04600C07E4038B5822458
S11339C001220E4B64001D5D80012A431A55982282
S11339D0000C520089019850090C08329950822138
S11339E0A4329950FFF7AEFF0828FBD082220124AD
S11339F0024952008B5CA3438B5438BD00C07E4007
S1133A008221012210B50D4B4900585C02435A54DF
S1133A1000222C315A5008315A50DD32B639FF3267
S1133A209950FFF78FFF0828FBD082220124034915
S1133A3052008B5CA3438B5410BDC04600C07E4033
S1133A408221012210B50F4B49005C5C0002224325
S1133A505A549C220021520099508022D2011043D2
S1133A609822520098508131AC329950FFF76AFF86
S1133A700828FBD082220124024952008B5CA34314
S1133A808B5410BD00C07E4008B501219023064A26
S1133A90D154D35C012B00D1C046044B06201B68D3
S1133AA0D96B00F0FFF908BD00C07E40FC0900207E
S1133AB010B5204B204A2149214CD15223681A7E4B
S1133AC0002A02D001211F4A1160D96B062000F0A0
S1133AD0E9F9A0231C4AD35C9B071BD1C022A52172
S1133AE0EF20154B52009950803A953999549854C7
S1133AF099549B5C102B1BD023681F249B6BEC21D7
S1133B00013B23401A1C0C484900435CA343134364
S1133B10435410BDC022A521AF20074B5200995039
S1133B20803A55399954985499549B5C502BE3D15D
S1133B30C046E1E7B23F000000C07E4080AAFFFF1C
S1133B40FC09002000E100E000E001409623C022CF
S1133B50A521F72000B5DB0183B00193144B52007B
S1133B609950803A9D399954985499549B5C082BE8
S1133B701BD0104B06201B68D96B00F093F90C493D
S1133B800D4A0E4B8B528B5A002B06D10AE0019B37
S1133B90013B01938B5A002B04D0019B002BF6D1DF
S1133BA0142000E0002003B000BDC046E1E7C04699
S1133BB000C07E40FC090020B23F000000AAFFFFC5
S1133BC00F4B30B51B6882249A600022012559608E
S1133BD01860DA600B4B64001A5DAA431A550A4A4E
S1133BE09446882261440C0C52009C5289B2083AD3
S1133BF0995201782832995081211C3A995430BD48
S1133C00FC09002000C07E400000F0BD962238B5BB
S1133C10284952008B5808205B0600D438BD8A23FB
S1133C20002001255B00C854234B1C68236B63618F
S1133C308858800905420CD0101C0125002B02D1A4
S1133C4031E0002B2FD0013B63610A5892091542E1
S1133C50F7D1F822174B52009958C90625D40121EF
S1133C609A585208114220D1256800206A1C22600B
S1133C706268511C6160A1680139A1600029CDD03E
S1133C800E498C4688216244100C4900585292B265
S1133C9008395A52982269785200995081211C3A65
S1133CA099540820BAE71420B8E700F071FA1820F4
S1133CB0B4E7C04600C07E40FC0900200100F0BD0E
S1133CC0134B10B51A68012450608220136AD46023
S1133CD05361104B91604000195CA14319540E4884
S1133CE05268844688200D49400051180C0C1C521F
S1133CF089B20838195290216244100C4900585076
S1133D0092B208395A528A2294395200995410BDF9
S1133D10FC09002000C07E40FF03F0BD0000F0BDA0
S1133D20962238B52A4952008B5808205B0600D4E5
S1133D3038BD8A23002001255B00C854254B1C682C
S1133D40236A63618858800905420CD0101C012540
S1133D50002B02D136E0002B34D0013B63610A58BA
S1133D6092091542F7D1F822194B52009958C90605
S1133D702AD401219A58114226D180226168D200A6
S1133D808A186260A568E2680020AA4217D2124825
S1133D90124A844688208A18150C40001D5292B29B
S1133DA008381A5290226144080C5200985089B283
S1133DB0083A995284210820043A9954E26801325D
S1133DC0E260B5E71420B3E700F0E2F91820AFE7AA
S1133DD000C07E40FC090020FF07F0BD0004F0BDD8
S1133DE030B5822401250D4B64009C460C4B604485
S1133DF01A5D6144AA431A558822040C52009C524D
S1133E0080B2083A9852080C1832985089B2083A8D
S1133E1099528321043A995430BDC0460000F0BD44
S1133E2000C07E40962238B5174952008B580820AE
S1133E305B0600D438BD8A23002001255B00C854EA
S1133E40124B1C68E36A63618858800905420CD0F0
S1133E50101C0125002B02D10FE0002B0DD0013BDB
S1133E6063610A5892091542F7D1F823064A5B00A8
S1133E70D358DB0603D40020DCE71420DAE700F093
S1133E8087F91820D6E7C04600C07E40FC09002010
S1133E90014B18607047C046FC0900200138002817
S1133EA0FCD17047484308B5800801D0FFF7F6FFFE
S1133EB008BDC04638B5002808D1012180230C4A2A
S1133EC00020D15002F01AFB002038BD4B680220BC
S1133ED0002BFAD0074A01251360C023044C5B0071
S1133EE00020E55002F00AFB25600020EDE7C04603
S1133EF000E100E0040A0020F0B54F462B4B80B4EB
S1133F0018600B2382B0071C03742949806B03F0EB
S1133F1079F82749041CB863F86B03F073F88146F9
S1133F20F863201C05F068F8041C0D1C221C2B1CD3
S1133F300020204903F0F2FE00900191484605F06C
S1133F405BF8021C0B1C0098019904F00BFA05F0B5
S1133F501DF8194B061C43437B63184B221C434337
S1133F603B6303011B1A5B00FB6200202B1C1449FA
S1133F7003F0D4FE00220F4B04F0F4F903F070F9BF
S1133F804B4658430F4B002173437B620E4B0F4A41
S1133F9073433B620E4BB8625E43FF239B01FE6199
S1133FA0D15402B004BC9146F0BDC046000A0020C2
S1133FB040420F0000004E4070170000A4060000AD
S1133FC00000494000530700C0D4010000C07E40F7
S1133FD01027000008B50B4A0B4BD25A1923802A2C
S1133FE001D0181C08BDFFF76BFE084B1B681A7E36
S1133FF00023002AF5D1FFF793FE0828FBD0031C09
S1134000EFE7C04600C07E40B23F0000000A002037
S113401070B500240E4D0F4E2B68DC600E4C5960B9
S11340201860365BFA246400802E01D0201C70BD19
S11340309A60FFF7C5FD2B6800241B7E002BF5D189
S1134040FFF7E4FD041E082CFAD0FFF77FFDEDE72F
S1134050000A002000C07E40B23F000038B5141CA6
S1134060354B364AD55A802D05D0D25A0023012A21
S11340702DD0181C38BD01390918FFF7B1FE304B9B
S11340801B681B7E002B48D1FFF7CCFE031E082BB8
S1134090FAD00028EDD19423284A5B00D35801229A
S11340A0DB0813403FD0227092220121234B52009F
S11340B0985C014301209954995C814399541E4AA8
S11340C09B5A802B34D0FFF741FD0023D1E70139FF
S11340D00918FFF7CFFBFFF7E9FB0828FBD0031E05
S11340E0C7D1164A2933FF33D3580122DB081340C2
S11340F017D1237092220121104B5200985C014386
S113410001209954995C814399540B4A9B5A802B02
S11341100BD0FFF751FB0023ABE7022323700023EE
S1134120A7E72270E6E72370BEE7FFF70FFDF0E78D
S1134130FFF70CFDC7E7C046B23F000000C07E4059
S1134140000A002008B50323012801D0181C08BD6B
S1134150FFF7AEFC044B054AD35A802B02D0FA2356
S11341605B00F3E70023F1E7B23F000000C07E40AC
S113417008B5054A054BD35A802B01D0002008BD51
S1134180FFF7E4FCFAE7C04600C07E40B23F0000FF
S11341909222012108B5084B5200985C014301208A
S11341A09954995C81439954044A9B5A802B00D0BA
S11341B008BDFFF7CBFCFBE700C07E40B23F000028
S11341C030B5002083B002F099F92E4D2B681C7C89
S11341D0082C15D0092C36D00A2C41D06C46072364
S11341E02370294B294AD35A802B29D000F058FA3E
S11341F0274B1B68002B01D0201C984703B030BD0F
S1134200FFF704FDA04380B2002807D12B689B6808
S1134210002BF3D16C4601332370E2E79222012193
S11342201A4B5200985C014301209954995C8143D4
S11342309954154A9B5A802BD0D1FFF787FCCDE7C0
S1134240FFF784FCD2E7FFF76BFD124B1840E5D172
S11342502B68DA689B689A42D0D96C462070C0E714
S1134260FFF7E0FD0B4B1842D8D19423074A5B00BB
S1134270D3586C461B0702D402232370B1E70323EF
S11342802370AEE7000A0020B23F000000C07E4069
S1134290040A0020F7FF000010B5002918D00028F8
S11342A016D01720002B00D110BD0A48047807202F
S11342B0002CF9D0084C0F30A242F5D8081CCB18BA
S11342C0441AA45C047001309842F9D10020EBE751
S11342D00120E9E7290A0020FF0F104082B00028DE
S11342E006D0044B1B6803600020019302B07047A2
S11342F00120FBE7849A000070B50D4C061C23785E
S11343000D1C0C48022B07D002F08CF9031C08206A
S1134310002B00D1257070BD02F084F9002804D16F
S1134320301C2570FFF70EFFF5E70820F3E7C046C1
S1134330280A0020780D002008B5002811D0132089
S113434002F0A8F900210020FFF7B4FD0022064B7B
S113435006481A70064B02321A7002F07BF90020EC
S113436008BD0120FCE7C046290A0020780D002082
S1134370280A0020034B18780238431E9841C000D5
S11343807047C046280A002008B5002808D0054B0D
S113439007201B78002B00D108BDFFF7EBFFFBE7DC
S11343A00120F9E7290A002070B5134B134D5B690E
S11343B082B00520291C01939847041E06D12E1CA7
S11343C02B68383E032B04D8FB246400201C02B065
S11343D070BD291D0620019B9847041EF6D1301C90
S11343E0FFF78AFD301CFFF78DFA301CFFF750FDF4
S11343F0FFF74AFBEAE7C046749B0000B40D0020B7
S1134400F8B5002928D0002826D013200D1C02F06E
S113441025F9041E02D00A24201CF8BD02221D4ED8
S11344201D4F3378934319D02B781C4A1376002BF5
S11344301CD06868291C431E9841C0B2FFF73AFD9E
S1134440051E17D00223381C337002F003F9132021
S113445002F020F92C1CDFE70124DDE7381C02F010
S1134460E1F8002814D101233370DDE70020291C72
S1134470FFF720FDFFF798FF0223051C381C33705B
S113448002F0E8F8002DE2D10122054B1A70C3E7CF
S11344900824C1E7280A0020780D00207C0D0020A4
S11344A0290A002070B500280BD01A4B07201B786E
S11344B0002B05D0161C0D1CFFF75CFF082802D149
S11344C070BD0120FCE70728FAD01620002DF7DB89
S11344D080239B029E42F3D8B542F1D800200621E6
S11344E0FFF70AFF041E09D0FFF752FE02220A4B0F
S11344F00A481A7002F0AEF8201CE1E7281C311CAF
S1134500FFF75CFA041EEFD1FFF732FE041EEDD074
S1134510EAE7C046290A0020280A0020780D002076
S113452010B500280AD0144B07201B78002B04D0A8
S1134530FFF720FF031E082B02D110BD0120FCE76A
S1134540072BFAD000200621FFF7D6FE041E09D05F
S1134550FFF71EFE0222094B09481A7002F07AF88E
S1134560201CEAE7FFF74CFA041EF1D1FFF700FE26
S1134570041EEFD0ECE7C046290A0020280A0020D8
S1134580780D002008B500280FD0094B07201B78B0
S1134590002B00D108BDFFF7FBFD0222054B0648A6
S11345A01A7002F057F80020F4E70120F2E7C04641
S11345B0290A0020280A0020780D002070B5002860
S11345C00CD01E4B07201B78002B06D0161C0D1C8C
S11345D0FFF7D0FE031E082B02D170BD0120FCE7BB
S11345E0072BFAD0022D18D1002EF6D00020072177
S11345F0FFF782FE041E1DD1281CFFF789F9041C55
S1134600002C17D1FFF7B4FD041C02220C4B0D48FB
S11346101A7002F01FF8201CDFE700200721FFF7C3
S11346206BFE041E06D1002EE6D1281CFFF708FA03
S1134630041CE5E7FFF7ACFDE7E7C046290A0020C4
S1134640280A0020780D002070B500280AD0114BEC
S113465007201B78002B04D0FFF78CFE031E082BC9
S113466002D170BD0120FCE7072BFAD00A4D281CAB
S113467001F0D8FF094E002801D108233370FFF759
S113468093FE0223041C281C337001F0E3FF201C5A
S1134690E7E7C046290A0020780D0020280A0020F8
S11346A0022208B5024B03481A7001F0D3FF08BD7B
S11346B0280A0020780D0020F8B54F464646214BC5
S11346C0C0B4984218D801231F4C0B77A5688542C3
S11346D002D8E668B04218D9221CA56A276820329D
S11346E00123A84203D3E66A141CB0420ED9181C55
S11346F00CBC90469946F8BD144B154AC4180023C7
S11347009442F4D80B77134CE0E70027636888469B
S11347109946191C401B02F075FC4B464246434324
S11347205B1913614A46013AD3184246C7195361CB
S1134730976143469560D6604A465A6022681A607B
S11347400123D4E7FFFF0100109A00000000F0BF2E
S1134750FF0F0000889A0000F8B54F464646C0B4E3
S11347603F4E071C8946101C311C151C9846FFF748
S1134770A3FF1624002804D1201C0CBC90469946A3
S1134780F8BD002F33D043460134002BF4D0354B11
S1134790103C1B78002BEFD0FFF7ECFD041E082C17
S11347A0EAD00728E8D0337F002B22D02E4B1624E2
S11347B09D42E1D8AA07DFD14246013A5219013499
S11347C09A42D9D8032140460840D5D1FFF794FD39
S11347D0041E1ED0254EFFF7DBFC337C082BCBD008
S11347E00222234B23481A7001F034FFC4E701244A
S11347F0C2E7214B1624EA18204B9A42BCD8434600
S11348001F4A013B5B1901349342B5D801200321AF
S1134810DCE7337F154E002B14D0736B73610323D5
S11348203374013B73824846291C4246FFF7F0FB70
S1134830041ED0D1337C082B9ED0FFF799FC041EB4
S1134840CBD0C8E7336B736101237382337E002BB3
S113485002D105333374E6E708233374E3E7C04633
S1134860080A0020290A0020FFFF01007C0D002017
S1134870280A0020780D00200000F0BFFF0F000080
S1134880FF0F1040F8B5364D061C081C291C171CD8
S1134890FFF712FF1624002801D1201CF8BD002EBA
S11348A02BD0304B0F3C1B78002BF6D0FFF762FD6A
S11348B0041E082CF1D00728EFD02B7F002B1ED02C
S11348C08023AA6915249B1A9F42E6D87B1E7F2B5E
S11348D0E3D800200421FFF70FFD041C002C1DD099
S11348E0214EFFF755FC337C092BD6D002221F4BF7
S11348F01F481A7001F0AEFECFE70124CDE7042370
S1134900AA6915249B1A9F42C7D87B1E032BC4D8BF
S113491001200421FFF7F0FC041CDFE72B7F124E7B
S1134920002B11D0736A7361022333742869391C14
S1134930FFF750FB041ED4D1337C092BADD0FFF715
S113494017FC041ECFD0CCE7336A7361337E002B8F
S113495002D104333374E9E709233374E6E7C0462C
S1134960080A0020290A00207C0D0020280A0020C3
S1134970780D0020F0B54746434D80B4061C0C1C4E
S1134980081C291C9846171CFFF796FE16230028BE
S113499003D1181C04BC9046F0BD002E2FD03B4B15
S11349A01A780723002AF4D0FFF7E4FC031E082B2F
S11349B0EFD00728EDD02B7F002B22D0344A1623CA
S11349C09442E6D8E119013201339142E1D8002F33
S11349D0DFD000200521FFF78FFC061C002E24D019
S11349E02C4DFFF7D5FB2A7C331C0A2AD1D0022296
S11349F0294B2A481A7001F02DFE331CC9E7012304
S1134A00C7E7274B274AE11816239142C1D8264904
S1134A10E01901338842BCD8791E9142B9D80120EB
S1134A200521FFF769FC061CD8E72B7F194D002BE5
S1134A3018D0032F1FD8EB6A7B436B6107232B74B9
S1134A40201C391C4246FFF709FB061EC9D12A7CEB
S1134A5000230A2A9DD0FFF78BFB0123061E2B742B
S1134A60C5D0BEE7EB6A7B436B612B7E002B07D17D
S1134A7006332B74E4E7EA6ABB0853436B61DDE752
S1134A800A232B74DCE7C046080A0020290A002008
S1134A90FFFF01007C0D0020280A0020780D002073
S1134AA00000F0BFFF0F000000101040034B800017
S1134AB09C4689B260440180002070471010044075
S1134AC0034B80009C460023604403600020704731
S1134AD0101004408021034A4942137800200B43FC
S1134AE013707047001004407F21034A002013789C
S1134AF00B4013707047C0460010044082B0002879
S1134B0006D0044B1B6803600020019302B0704779
S1134B100120FBE7E49A000000280CD0012801D012
S1134B20012070470022084B00201A7140321A718C
S1134B3001321A71F5E74022034B98709A700132E2
S1134B409A700020EDE7C0460010044030B50028FC
S1134B501FD0114A114B51680B4053604468002C1C
S1134B600CD08268640014190D4D1378AC4651784A
S1134B709B00634402321980A242F5D10378002BD2
S1134B8005D08021074A494213780B431370002053
S1134B9030BD0120FCE7C04600700440FFBFFFFFAA
S1134BA0101004400010044006207047062070478F
S1134BB010B5021E1AD005240457144BA100CB587B
S1134BC09968002912D0596800290FD03F20D9785C
S1134BD0814305D1D98980233E38DB00994204D82A
S1134BE012680B4B07209A4202D010BD0120FCE74B
S1134BF0084BC034A400E158074A00200A40802131
S1134C00E250E25849040A43E250EEE7000C002067
S1134C100043544400600040FFFFFEFF031E10D019
S1134C20094A19680720914200D070475B79074907
S1134C305BB2C0339B005858054A02405A500020CA
S1134C40F3E70120F1E7C04600435444006000400C
S1134C50FFFFFFFE002836D0002934D000221B4B72
S1134C60DB898A719BB21AB2002A1CDB05228256A8
S1134C703F20174B9200D258D3788343802B0BD01C
S1134C80D28992B28A80402B15D0002B06D1802382
S1134C900020DB000B60704793898B8080235B00CE
S1134CA00B600020F7E7052282565BB29A42DFD1FF
S1134CB001238B71DCE7BF331A4080235B008A80B9
S1134CC00B600020E7E70120E5E7C0460054004000
S1134CD0000C002082B0002806D0044B1B6803603F
S1134CE00020019302B070470120FBE7E89A00001E
S1134CF070B582B0019100920122002806D0002BE9
S1134D0004D02749046806328C4202D0101C02B039
S1134D1070BD05213F264156224C8A00A558EA78E9
S1134D20B243802A30D0204DC03189004E591F4AE9
S1134D3032404A5110251E490A78AA430A70019A42
S1134D40002A28D005228256019D9200A1584D6068
S1134D500099002902D0A158009D8D60A1583F24DC
S1134D60CA78A243802A14D0002A00D1CB81FFF74D
S1134D701FFF10230E4A11780B431370431E9841F2
S1134D80132240420240C1E7ED897F3A002DCAD187
S1134D90BCE78B81EBE7052282569200D8E7C04638
S1134DA000435444000C002000600040FFFFFFFE5D
S1134DB00054004010B5031E17D00D4A196807208F
S1134DC0914200D010BD05229A560A48C032920082
S1134DD01458094921401150052200219A560748C8
S1134DE09200115019600020ECE70120EAE7C04668
S1134DF00043544400600040FFFFFFFE000C00200D
S1134E00F8B54F464646C0B400283FD000293DD0EF
S1134E100B68002B3AD09D783F262A1CB243402AC7
S1134E2034D0DC780122A709032F2AD0A706BF0FAC
S1134E30032F26D00C273D40042D22D02740042FD9
S1134E401FD0B44304D0DC8980235B009C4218D873
S1134E503E4B02689A421BD00B7900249C463C4F7F
S1134E60231CC0339B00DA59E5B2D2B2384E9445C4
S1134E7010D001340A2CF3D1CA230B229B00F3581F
S1134E800371101C0CBC90469946F8BD0122F8E74A
S1134E900822F6E79B592F4E037133780F1C804686
S1134EA0002B26D02C49A4000B59002BF0D13B68D1
S1134EB03F2000E01033DA78824301D09A7BDA7322
S1134EC09A788243F6D11022244E91463378934344
S1134ED033703B6842460B5143465D711B4B136074
S1134EE07B79002B24D110233278134333700022B2
S1134EF0C7E7082001F0B2FB0A220028C1D1184AF2
S1134F00184BD1690B40D36101221349134B08603C
S1134F1048608860C860086148618861C861086247
S1134F2048625960187B02431A7301233370BAE74D
S1134F304046FFF73DFE4B46327813433370031C63
S1134F40581E834113225B421A409AE7004354449B
S1134F5000600040280C0020000C00200054004099
S1134F6000E00140FFFFBFFF064B074A07491A60F4
S1134F70074AD9605A60802212029A601A6100229C
S1134F805A61704760050020006CDC020024F400C4
S1134F9000127A007047C04630B508250A4B0B4909
S1134FA00B4A5C5AC00022430A4C5A521A5D2840EC
S1134FB0AA4310431855585A074A0240A520000234
S1134FC002435A5230BDC04600E00140FE030000D7
S1134FD001A5000013040000FE5A000030B50325AB
S1134FE0094B0A490A4A5C5A28402243094C5A523E
S1134FF01A5DAA4310431855585A074A0240A5207F
S1135000000202435A5230BD00E00140FE0300009A
S113501001A5000081040000FE5A000010B51B49E0
S11350201B4A1C4B8C5A23438B5205280AD81A4B13
S113503080001B5815499F4690220120D2008B5CAA
S113504083438B5411481249144B425A1340A522EE
S113505012021343435210BD2A2201208B5C834366
S11350608B54EFE7362201208B5C83438B54E9E7B2
S1135070382201208B5C83438B54E3E79222DCE7E4
S1135080322201208B5C83438B54DBE700E0014038
S1135090FE03000001A50000109B0000FE5A000062
S11350A010B51B491B4A1C4B8C5A23438B520528B1
S11350B00AD81A4B80001B5815499F469022012399
S11350C0D200885C03438B5411481249144B425A52
S11350D01340A52212021343435210BD2A22012376
S11350E0885C03438B54EFE736220123885C034337
S11350F08B54E9E738220123885C03438B54E3E7AC
S11351009222DCE732220123885C03438B54DBE7E1
S113511000E00140FE03000001A50000289B000000
S1135120FE5A0000032811D0052809D0002801D018
S1135130002070473C23084A0130D35C1840F8E74C
S11351403C23054AD05C8006C00FF2E73C23024AA8
S1135150D05C0007C00FECE700E00140052817D839
S11351600C4B80001B589F469023DB0001200A4A09
S1135170D35C18400123584070472A23F6E73623AE
S1135180F4E73823F2E79223DB00EFE73223EDE77D
S11351900020F1E7409B000000E00140024B1A6A46
S11351A026229B5C7047C04600E0014030B50B4AA4
S11351B00B490C4B545A40252343535201230A4CA8
S11351C018408301105DA84318431055505A074BEB
S11351D00340A52000020343535230BD00E00140C8
S11351E0FE03000001A5000013040000FE5A0000A5
S11351F030B50A4B0A4A0B489C5A0F252043A22477
S11352009852185D2940A84301431955985A0649F4
S11352100140A52000020143995230BD00E0014045
S1135220FE03000001A50000FE5A00000522002331
S113523082425B41D8B270470622002382425B411E
S1135240D8B2704726230720014AD35C1840704720
S113525000E0014030B50A4B0A4A0B499C5A072525
S1135260214326249952195D2840A943084318551F
S1135270985A06490140A52000020143995230BDC5
S113528000E00140FE03000001A50000FE5A0000FA
S11352907047C0467047C04670B507260C490D4D8F
S11352A00D4B4A5B13434B534378C47882793340A4
S11352B0344032401B021206234313430B624A5B01
S11352C0064B1340A522120213434B5370BDC04634
S11352D000E00140FE03000001A50000FE5A0000AA
S11352E007230E4A116A090B19400170116A090A51
S11352F019404170116A090919408170116A1940F5
S1135300C170116A090C19400171116A090F194021
S11353104171126A120E13408371704700E001401C
S113532070B543780025032B14D84668041C0B4938
S1135330301C01F01FFF00280CD18221301CC9054C
S113534001F004FF002805D12578032D04D06B4219
S11353505D41EDB2281C70BD0125FBE70000F8415A
S1135360062826D8144B80001B589F46134B186AF6
S11353704000400F7047114B186A4001400FF9E795
S11353800E4B186A4004400FF4E70C4B186A4005B2
S1135390400FEFE7094B186A4006400FEAE7072081
S11353A0064B1B6A1840E5E7044B186A4003400F9C
S11353B0E0E70020DEE7C046589B000000E0014023
S11353C008B5FFF7CDFF2623044AD35C0722134018
S11353D0034A9B009B58C340181C08BD00E00140D1
S11353E060050020024B8000C358CB40181C704756
S11353F06005002010B50C4A0C490D4B505AA024EE
S1135400034353520021A0230120D154135D0649C4
S11354101B091842FAD10548064B0A5A1340A52223
S1135420120213430B5210BD00E00140FE030000C2
S113543002A50000FD5A000010B50C4B0C4A0D49A2
S1135440985A8024014399524021585C6442204375
S1135450585401205C5C20435854985A0649014032
S1135460A52000020143995210BDC04600E001404E
S1135470FE03000001A50000FE5A000010B50B4B0E
S11354800B4A0C49985A0124014399524021585C13
S1135490A0435854585C7E3420405854985A0649C6
S11354A00140A52000020143995210BD00E00140D3
S11354B0FE03000001A50000FE5A00004023024A3A
S11354C0D05CC0097047C04600E001404123012080
S11354D0014AD35C1840704700E00140412101209B
S11354E030B50B4A535C03400020012B0FD109480F
S11354F0094C155A2C431452545C9C435454115A6D
S1135500064B0B40A52109020B431352012030BD69
S113551000E00140FE03000001A50000FE5A000067
S113552030B50A4B0A4A0B499C5A012521433024C1
S11355309952195D2840A94308431855985A0649B9
S11355400140A52000020143995230BD00E0014012
S1135550FE03000001A50000FE5A000010B5094B2F
S1135560094A0A49985A01435220995201211C5C64
S113557021431954985A06490140A52000020143C9
S1135580995210BD00E00140FE03000001A5000097
S1135590FE5A000010B5094B094A0A49985A0124D9
S11355A0014352209952195CA1431954985A06494F
S11355B00140A52000020143995210BD00E00140C2
S11355C0FE03000001A50000FE5A0000F0B5104BD8
S11355D0104D114A5C5B7F2622433E2470275A53A8
S11355E01A5D3240783E1A5531400A01195D304047
S11355F0B943114319551A5DB24310431855595B09
S1135600064A0A40A52109020A435A53F0BDC0467E
S113561000E00140FE03000001A50000FE5A000066
S113562010B50A4B0A4A0B49985A802401433E207C
S11356309952195C644221431954985A064901400D
S1135640A52000020143995210BDC04600E001406C
S1135650FE03000001A50000FE5A000010B5094B2E
S1135660094A0A49985A7F2401433E209952195CF9
S113567021401954985A06490140A52000020143CB
S1135680995210BD00E00140FE03000001A5000096
S1135690FE5A000000210C4B0C4A013810B51C685E
S11356A01960904202D900201C6010BDC0245860CB
S11356B007482406026A1202120A224302620722DF
S11356C0996001201A60F0E710E000E0FFFFFF009E
S11356D000ED00E0502210B50F24034920408B5CFC
S11356E0A3431843885410BD00E001405022802099
S11356F0024940428B5C03438B54704700E00140F5
S113570050227F2002498B5C03408B547047C04673
S113571000E00140002070470020704700207047DF
S1135720024B1B68036000207047C046D09B0000FA
S113573038B5051C0C1CFFF785FD2870201CFFF7ED
S1135740CFFD002038BDC04638B500230B60051CD2
S11357500C1CFFF771FD0323002801D1181C38BD70
S1135760281CFFF72DFE00232060F7E708B5FFF79C
S1135770ADFE002803D0FFF765FD032803D0FFF733
S1135780ADFE002008BD9820FF30FBE708B5FFF709
S1135790C7FE002008BDC04608B5FFF7DFFE0020A5
S11357A008BDC04608B5FFF7F5FE002008BDC04699
S11357B008B5FFF70BFF002008BDC04608B5FFF78A
S11357C02FFF002008BDC04608B5FFF747FF0020A3
S11357D008BDC04608B5FFF77DFF002008BDC046E0
S11357E008B5FFF783FF002008BDC04608B5FFF7E2
S11357F087FF002008BDC04600B5124B83B001935B
S1135800FFF7B2FB0420FFF74BFC05E0019B002BE4
S113581007D0019B013B01930420FFF79FFC002864
S1135820F4D1019B002B03D1CD20400003B000BD77
S113583004200521FFF7B2FC0020FFF7CFFB002076
S1135840F4E7C046FFFF000010B5041CFFF7EEFCB0
S1135850031C0320002B00D110BD631E012B10D9A3
S1135860042C0ED0002C04D0FD22E31E0020134291
S1135870F2D1201CFFF772FC00280AD1C820400096
S1135880EAE7201CFFF76AFC431E98419130FF3081
S1135890E2E7201CFFF746FC434258419330FF30B7
S11358A0DAE7C04630B583B0041C0D1CFFF7BEFC1C
S11358B0002802D1032003B030BD052C12D0201CD7
S11358C0FFF74CFC002802D09220FF30F3E7631E60
S11358D0012B40D9042C48D0002C1CD0032C22D0FE
S11358E00020E8E70520FFF739FC002838D1012023
S11358F0002DE0D0FFF7A6FC0528E5D0281CFFF713
S11359000FFD0028D6D02878FFF728FC002843D1C3
S11359109530FF30CFE70020FFF704FC002811D0BA
S11359209420FF30C7E70320FFF7FCFB0028F7D1E2
S11359300020FFF731FB0020FFF738FC032009218A
S1135940FFF756FC201C0121FFF74CFD1B4B98422E
S113595001D9FFF74FFD201CFFF760FB0020AAE7E9
S1135960FFF718FB9220FF30A5E70420FFF756FB52
S1135970134B019305E0019B002B07D0019B013BD6
S113598001930420FFF7EAFB0028F4D0019B002BCD
S1135990A6D1CD2040008EE70520FFF7C3FB0028E9
S11359A0BED16878FFF776FC6868FFF771FCFFF7F3
S11359B0F1FA0520FFF732FB00207CE700093D00E7
S11359C0FFFF000010B582B0041CFFF72FFC032377
S11359D0002802D1181C02B010BDFFF733FC84422A
S11359E022D0012C23D0201CFFF7B8FB002819D0AB
S11359F0022C14D0042C21D0002C03D0FD22E31E51
S1135A0013420FD1201CFFF78DFB002807D19423EC
S1135A10FF33DFE70120FFF7A1FB002802D0201CA1
S1135A20FFF73EFB0023D5E79223FF33D2E7FFF7CE
S1135A3045FD0028EED09623FF33CBE70420FFF783
S1135A402FFB0A4B019305E0019B002B07D0019B20
S1135A50013B01930420FFF781FB0028F4D1019B53
S1135A60002BDFD1CD235B00B4E7C046FFFF00006D
S1135A7038B5041C0D1CFFF7D9FB0323002801D102
S1135A80181C38BD002D1CD0A9796A788A42F7D336
S1135A90201CFFF7A7FCFFF7D5FB844208D0002C9D
S1135AA011D0FD22E31E13420DD0201CFFF7D2FBC0
S1135AB0281CFFF7F1FB00F051FC074B1860002392
S1135AC0DEE70123DCE7201CFFF72CFB0028ECD1E8
S1135AD0C9235B00D4E7C046BC0D002008B5031CF5
S1135AE0002909D00120002B05D0191C00F04CFC22
S1135AF0FFF7A2FC002008BDFFF7E8FC002802D055
S1135B00CB204000F7E7FFF7B9FC0020F3E7C046DD
S1135B1070B50323002801D1181C70BD0D1C041C92
S1135B2000F01CFC061C201C02F0B0F8041C301C05
S1135B3002F0ACF8011CFE20800501F0E5FB061C18
S1135B40281C02F0A3F8011C301C01F0CFFD011C3D
S1135B50201C01F0D9FB01F06BFBFFF79BFD4242D7
S1135B605041122340420340D6E7C0460B7C032039
S1135B705A1E93415B4218407047C0467047C04666
S1135B80C02310B54C689B0503221C4201D0101C95
S1135B9010BD096819420BD10022CB00F7D5830050
S1135BA01818084B8000C35C002BF0D00332EEE7DA
S1135BB0054B1C882406EAD47A241B5D002BE6D10D
S1135BC0EAE7C0460000002000C0054010B50C1CE8
S1135BD0012000F093FD012000F06EFD2368DB003E
S1135BE005D58021074A4900538A0B43538201207B
S1135BF0E36804491B0F03401A1C4B8A8343134375
S1135C004B8210BD00C005408021034A8900538A9D
S1135C100B4353827047C04600C005407047C046DE
S1135C208021034A490113880B4313807047C046FF
S1135C3000C005404023024A11880B43138070477B
S1135C4000C005404021024A13888B4313807047EB
S1135C5000C00540802210B5041C012016498B5A4F
S1135C600340012B1CD0144A13885B049B0F012BA7
S1135C701FD0FC21138A89010B43138200220E4B8F
S1135C8001201A8000F03AFD002C05D180210B4A36
S1135C90490293680B439360012000F00DFD10BD91
S1135CA0885A98438852044A13885B049B0F012B3B
S1135CB0DFD1034B1382E1E700C0054000700440CC
S1135CC03F3F0000002803D108230B7214334B72AA
S1135CD07047C04610B50323002801D0181C10BD1E
S1135CE0D178002919D1918803234904F6D19179F7
S1135CF0032906D902200C1C8443812C01D0852958
S1135D00ECD12023D17999431D3B0029E6D1117AA6
S1135D1002228A4292411340E0E70329DED1E2E7FE
S1135D2010B5041C012000F0E9FC364A2388916870
S1135D30002B44D1344B0B409360012000F0BCFC99
S1135D400022324B1A805A82A278022A46D0012AB3
S1135D504CD080212D4B1A888A431A80227A012A3A
S1135D6031D0002A08D180211A8849000A431A80B8
S1135D70198A274A0A401A8203220620E378234913
S1135D8013405A00CB8983431343224ACB81944660
S1135D90A3881A3063445A425341DA03CB895B0423
S1135DA05B0C1343CB81E379203B5A4253415A01A4
S1135DB0CB8983431343CB81A3790B7310BD164B5B
S1135DC00B409360B9E72288002A17D1198A104A38
S1135DD00A40902109010A431A82CDE719880F4A23
S1135DE00A40802189010A431A80B2E719880B4AC4
S1135DF00A408021C9010A431A80AAE7012ABBD1BB
S1135E00E4E7C04600700440FFFFFEFF00C0054009
S1135E10FFC0FFFF0080FFFFFF7FFFFFFF9FFFFF2B
S1135E200B6870B5002B01D1032070BD194A1342D1
S1135E30FAD1194C24886404A40F012C17D04B68A0
S1135E40002BF1D100250C1C061CFFF799FE00283D
S1135E50EBD1114B1B7B5B0718D023681D43E36810
S1135E60AB43E1D1301C211CFFF780FEDDE74D6818
S1135E70002DD9D013431D42D6D10B89012BE2D971
S1135E80032BE0D0054A9342CED1DCE7E368002B34
S1135E90CAD1E7E700F880CF00C0054001800000C8
S1135EA0802238B50B685205051C0C1C134214D112
S1135EB04968114211D180229205134216D0281C40
S1135EC0FFF7A2FE0220E3680C499B00DB0F5A0097
S1135ED04B8A834313434B8238BD281C211CFFF794
S1135EE075FE8022236892051342E8D16368134249
S1135EF0F2D0281CFFF792FEE4E7C04600C005403C
S1135F00F0B5474680B4051C0C1CFFF789FF071E3B
S1135F1003D0381C04BC9046F0BD3F222388324E87
S1135F20281CB380A388211CB382A38990463381A3
S1135F3063881340F380E3881340F382E3891340BA
S1135F407381FFF7ADFF281C211CFFF717FE23897F
S1135F50264A934219D080217352AB005B1924491D
S1135F609B005B5C012B07D033885B049B0F012BE8
S1135F7020D0281CFFF754FE22891C4B9A42C8D11A
S1135F8080231C49184AD152C3E7AB005B19184A55
S1135F909B009B5C012BF3D033885B049B0F012B8C
S1135FA0E7D13F23104A281C118A0B431382FFF7C1
S1135FB049FEDEE723899342F3D0281CFFF73AFE1B
S1135FC0002D09D0012DD4D14246338A93431A1CA3
S1135FD00A2313433382CCE74246338A93430A228B
S1135FE013433382C5E7C04600C00540018000006A
S1135FF0000000200180FFFF002814D00388032044
S1136000002B00D070470E4B04305A7A002AF9D086
S11360101B7A0C4A022B08D08021138889000B4379
S113602013800020EEE70120ECE713880820DB0B47
S1136030E8D11388044900200B431380E2E7C046EB
