:10000000D035002005690000296500000169000065
:1000100001690000016900000169000000000000A2
:100020000000000000000000000000000169000066
:100030000169000000000000016900000169000082
:10004000E14200000169000069380000E529000074
:1000500085290000A52A0000452A0000152A000075
:10006000B5290000D52A0000752A00000000000014
:100070000000000000000000000000000000000080
:100080000000000000000000000000000000000070
:100090000000000000000000000000000000000060
:1000A0000000000000000000000000000000000050
:10040000FFFFFFFFDFCFFFFFFFFFFFFFFFFFFFFF4C
:10041000FFFFFFFFFFFFFFFFFFFFFFFFFFFFFFFFEC
:10042000FFFFFFFFFFFFFFFFFFFFFFFFFFFFFFFFDC
:10043000FFFFFFFFFFFFFFFFFFFFFFFFFFFFFFFFCC
:10044000FFFFFFFFFFFFFFFFFFFFFFFFFFFFFFFFBC
:10045000FFFFFFFFFFFFFFFFFFFFFFFFFFFFFFFFAC
:10046000FFFFFFFFFFFFFFFFFFFFFFFFFFFFFFFF9C
:10047000FFFFFFFFFFFFFFFFFFFFFFFFFFFFFFFF8C
:10048000FFFFFFFFFFFFFFFFFFFFFFFFFFFFFFFF7C
:10049000FFFFFFFFFFFFFFFFFFFFFFFFFFFFFFFF6C
:1004A000FFFFFFFFFFFFFFFFFFFFFFFFFFFFFFFF5C
:1004B000FFFFFFFFFFFFFFFFFFFFFFFFFFFFFFFF4C
:1004C000FFFFFFFFFFFFFFFFFFFFFFFFFFFFFFFF3C
:1004D000FFFFFFFFFFFFFFFFFFFFFFFFFFFFFFFF2C
:1004E000FFFFFFFFFFFFFFFFFFFFFFFFFFFFFFFF1C
:1004F000FFFFFFFFFFFFFFFFFFFFFFFFFFFFFFFF0C
:1005000010B5064C2378002B07D1054B002B02D0E9
:10051000044800E000BF0123237010BD0008002044
:100520000000000018B7000008B5084B002B03D0EE
:100530000748084900E000BF07480368002B00D1C6
:1005400008BD064B002BFBD09847F9E700000000E0
:1005500018B7000004080020640500200000000017
:100560001F2318401E3B8340181C014B1860704726
:1005700000E100E01F2318401E3B8340181C80232D
:10058000014AD0507047C04600E100E030B583B06A
:10059000002827D0002925D000234B600B6043683A
:1005A0000C1C051C002B20D09A68002A1AD09269D6
:1005B000002A17D0186869469047002813D1009B7D
:1005C0006360AB68002B14D09A68002A0AD0926945
:1005D000002A07D0186869469047002803D1009B7D
:1005E000236000E0012003B030BD01235B424B607B
:1005F000E7E701235B4223600020F4E70223037056
:10060000013B43708370C3700020704710B5002811
:1006100024D0041C0068124B0201D35C012B05D0CE
:100620000023A36102F016F9002010BD6368002BBF
:1006300007D09A68002A11D0186800280ED0D36914
:100640009847A368002B07D09A68002A06D018683C
:10065000002803D0D36998472068E1E70120E4E748
:10066000E80C002070B500280BD0002909D00668DE
:10067000124C35012C5D0525013C042C03D9281CA6
:1006800070BD0125FBE70E4CA44666447601B479A3
:10069000E4060AD5002A0ED043689A68002AF0D0F2
:1006A0001B685D425D41ADB2E9E719430123023D9C
:1006B0000B42E4D1EEE70025E1E7C046E80C00205C
:1006C00000380002F8B54646151C4F46041CC0B45D
:1006D00062682B1C0E1CFFF7C5FF002810D1002DEF
:1006E0000ED002212268184BD7187F01BB79120166
:1006F000DB06DB0FCB1A9846144BD35C012B03D0DF
:100700000CBC90469946F8BD63689946002BF7D01B
:10071000281C414607F086FC0D4A031E93420FD861
:10072000391C42461131022A0CD0012222754A4658
:10073000484692689BB254680068321CA047DFE7C5
:10074000131CEDE70139F0E700380002E80C002047
:10075000FFFF0000F0B55F4656464D464446F0B4F4
:1007600087B0002A08D10325281C07B03CBC90465E
:100770009946A246AB46F0BD002971D14B4B91463C
:100780005B69002600934A4B03909846002301932F
:10079000FF330293474B45469A46012005A9009B2B
:1007A000984780460028DED14B462C88059F5C4345
:1007B000381C211C07F036FC002814D0431E9B4631
:1007C000FF2B10D8211C41433A4B780A5843490A61
:1007D00007F028FC384B9C466044504503DA5B46E2
:1007E000824602930196013606350D2ED5D1314B46
:1007F00045469A45B7D0314A03249446039B019954
:100800006344580183788C46A34383706B461A7AFD
:100810004B00274963448C460121427040225B0013
:1008200063449E780E40B701C67996433E43C67135
:10083000DE78303A0E403701C67996433E43C671A2
:1008400008261A790A40D100C279B2430A43C2711C
:100850005B7923401A1C0378A3431343037083E797
:10086000164B40229C46FF23604440014370C379ED
:100870009343C371C379383A9343C3710378053AFC
:1008800093430370837893430222134383700229B6
:1008900005D01022C37900259343C37164E7102368
:1008A000C27900251343C3715EE7C046D8B000008B
:1008B00018AE000010270000F0D8FFFF003800023B
:1008C000F0B546464F46151C041CC0B4A26883B060
:1008D0002B1C0E1CFFF7C6FE002803D1E36808306E
:1008E000002B04D003B00CBC90469946F0BD2268A2
:1008F00040491301585C012801D00020F2E7CB18D1
:100900005978002900D158703B4B9C460223624421
:1009100052019779FF06FF0FDF1BA3689946002B52
:100920005ED0012D5CD9EB1BF318E3600F239846D2
:1009300027619044022F58D0391C281C07F072FB05
:100940004A46031C916810682C4A013B934200D927
:10095000131C4D689BB2311C4246A8470028C1D1E8
:10096000254923688C4663445A01202391780B4320
:1009700093702568002D36D00820092D00D0033053
:1009800040B2FFF7EDFD6A4680201B4B4042EB185A
:100990005B019978C9B2D1719978C9B2D17199784E
:1009A000C9B2D171997801439970D3792268002A2C
:1009B000A3D0114BF7199C466244E760520193792A
:1009C0003178DB0606D41379DB09FCD089B2D181FA
:1009D000002087E71379DB09FCD0D170002081E784
:1009E000E6602561C1E70420CAE7013B98469044D0
:1009F000A2E7C046E80C002000380002FFFF00001C
:100A000070B582B0002800D1B0E004680E1C051C4F
:100A1000002C00D195E0092C00D187E00B20FFF7D6
:100A2000A9FD002C00D18FE0092C00D181E00B2022
:100A3000FFF7A0FD002C00D189E0092C00D17BE05C
:100A40000B20FFF797FD002C00D183E00B20092C31
:100A500000D174E040B2FFF78DFD6A467F20444B21
:100A6000E3185B019978C9B291719978C9B2917113
:100A70009978C9B2917199780140997099787B38C9
:100A80008143997099783C30814399709379384AC1
:100A9000202194462B6863445B019A788A439A70BC
:100AA0002B68103963445B019A788A439A706346D5
:100AB000032228680021C3185B019C78224203D0DE
:100AC000D979C906C90F511A321CFFF743FE284ACB
:100AD0002B689446102263445B019978061C0A43F4
:100AE0009A702C68002C3CD0092C35D00B20FFF7D5
:100AF00037FD002C38D00B20092C30D040B2FFF746
:100B00002FFD6A461A4BE3185B019978C9B2D1717F
:100B10009978C9B2D1719978C9B2D17140219878C8
:100B20000143301C9970D37902B070BD0820FFF7E3
:100B300021FD0920FFF71EFD0720FFF71BFD0A20FE
:100B400088E70420FFF716FD0520FFF713FD0320BB
:100B5000FFF710FD06207DE70720FFF701FD0A20C3
:100B6000CCE70320FFF7FCFC0620C7E70120DBE70A
:100B700000380002F0B55F4656464D464446F0B494
:100B800089B0002817D0002915D0061C08680C1C55
:100B900001F0EEFE051E06D12068624A0301D35C17
:100BA0000835002B09D0281C09B03CBC904699465A
:100BB000A246AB46F0BD0125F5E7237A053D022BA1
:100BC000F1D8A37A012BEED8637A022BEBD8E36934
:100BD0009846002B06D01B78002B00D062E3636898
:100BE000002BE0D001F018FE051E01D00A25DAE73F
:100BF000E36822697360B260002B47D09A68019263
:100C0000002AD8D01A689446002AD4D05B68002BFA
:100C1000D1D01A68002ACED09778D078B9460C2760
:100C2000BA464F4651468F4308218B4659460F43DB
:100C30003F21B94657460140B943D1704F46DF21A5
:100C40000F409770217A022900D125E23027D17810
:100C5000B943D17022689246002A01D0092AAAD14C
:100C600003AA171C934607CB07C706CB06C75246F5
:100C70002D4B60469B5C5A46137100235371019BB8
:100C800059461B68984700284AD12269002A4FD04C
:100C900093680193002B8ED013689C46002B8AD05A
:100CA0005368002B87D01A68002A84D00C27BA46D4
:100CB0003337BB46D17890780F1C59460F405146C8
:100CC0008F4308218B4659460F4351468843D770BE
:100CD000011C2027B9439170217A022900D1D4E266
:100CE0003027D178B943D17022689246002A02D0C9
:100CF000092A00D05FE703AA171C934607CB07C752
:100D000006CB06C75246094B60469B5C5A46137198
:100D100000235371019B59461B689847002807D050
:100D2000051C40E7E80C00200CAE000068AE000097
:100D300023680120994605F0BBFD1F224946511A40
:100D40001E3A8A40DE48036893430360012005F0A1
:100D50008DFDDC4AF22194460022236863445B0146
:100D60001A709A701A7199710D3159709974D64927
:100D7000DA711A725A729A72DA721A735A731A7391
:100D800099825A834032DA743D3A1A7706222368F0
:100D900063445B011A7723689946002B00D184E1F4
:100DA000092B00D096E10820FFF7E4FB0920FFF7AC
:100DB000E1FB0720FFF7DEFB0A2040B2FFF7DAFB7A
:100DC0007F20C04B02AA4B445B019978C9B2D17015
:100DD0009978C9B2D1709978C9B2D1709978014027
:100DE000997099787B388143997099783C30814328
:100DF0009970D378B34A10219446236863445B0109
:100E00009A788A439A702368103163445B019A7818
:100E10008A439A702368002B00D178E1A94A012106
:100E2000944663445B019A8A8A439A824346002B24
:100E300000D1FEE09B78002B00D123E1A14A802164
:100E400094462368494263445B01DA790A43DA71C4
:100E50004346DB78002B00D1F4E09A4A236894469D
:100E6000202263445B01D9790A43DA7100221A72A5
:100E7000944A01219446E3699846236863445B01E0
:100E80005A7A8A435A7223687E3163445B015A7BE3
:100E90000A405A7323683F3963445B015A7B8A4393
:100EA0005A73637A002B00D1D8E020222368634470
:100EB0005B0119780A431A70637A012B00D173E140
:100EC000804A10219446236863445B011A788A4360
:100ED0001A70237A012B00D15DE1022B00D17CE155
:100EE000784A40219446236863445B011A788A4318
:100EF0001A70102299790A439A71A37A012B00D1B2
:100F00003FE1704A08219446236863445B011A78E4
:100F10008A431A70E37A002B00D1A9E0694A23685A
:100F20009446022263445B01597B0A435A73434649
:100F3000002B00D15FE11B780021002B05D0022B94
:100F400000D1ABE1032B00D1AAE120686268FFF772
:100F500001FC032800D156E143465B78002B00D00A
:100F60002CE1584A032094460222236863445B0123
:100F7000997811409A7882430A439A702368002B2B
:100F800011D1012251498B8A5B081A42FBD1012100
:100F90004E48838A4D4A9B081942FAD10123918A0F
:100FA0000B4393822368474A0821944663445B01BC
:100FB0009A8A01208A4300219A82A2692368F261F9
:100FC0006269434FB2611A013360F160316131757A
:100FD000B854BF181022634479707E605B01997821
:100FE0000A439A702468002C00D149E1092C00D1F1
:100FF00041E10B20FFF7B4FA002C00D143E10B20B4
:10100000092C00D13AE140B2FFF7AAFA2D4B03AA0E
:10101000E3185B019978C9B211709978C9B211705F
:101020009978C9B21170402198780143997013786A
:10103000B9E5244A7F219446236863445B01DA7949
:101040000A40DA711F4A20219446236863445B01F9
:10105000DA798A43DA7100221A7209E7194A2021E3
:101060009446236863445B011A788A431A7023E725
:10107000144A02219446236863445B015A7B8A43E5
:101080005A7354E70F4A7F219446236863445B01F7
:10109000DA790A40DA71DBE63020D178814389467B
:1010A000102148460143D170D4E50420FFF762FACD
:1010B0000520FFF75FFA0320FFF75CFA06207CE6C5
:1010C000007004400038000200F8FFFF00000740F5
:1010D000E80C00200B20FFF74DFA4B46002BE7D021
:1010E000092B00D162E60B20FFF744FA4B46002B98
:1010F000E1D0092B00D15CE60B20FFF73BFA4B4611
:10110000002BDBD00B20092B00D056E654E6734AA7
:101110001F39938A8B4393820222236863445B01C5
:10112000998A0A439A822369002B00D1CAE0236876
:101130006B4A63445B01998A0A409A82694A236830
:10114000944663445B019A8A67490A439A822368FA
:1011500063445A010423918A0B4301219382938AA9
:101160009B081942FBD12369002B00D1A0E05D4A06
:10117000F0219446236863445B019A8A8A439A82E9
:1011800054E6584A23689446082263445B01197860
:101190000A431A70BEE6534A2368944640226344C9
:1011A0005B0119780A43A3E64E4A2368944610224D
:1011B00063445B0119780A431A708AE6494A03209E
:1011C00094460122236863445B01997801401143EE
:1011D0009A7882430A439A70D0E6424A4021944664
:1011E000236863445B011A788A431A709A7930390C
:1011F0008A439A7181E6206800216268FFF7AAFAA3
:10120000032800D0ADE6374A032094460222236823
:1012100063445B01997811409A7882430A439A703B
:101220007368002B03D09A681868D3699847B3682D
:10123000002B03D09A681868D3699847294A7F2100
:1012400094462368012063445B01DA790A40DA712D
:10125000256805F02DFB1F23591B1E3B8B4023489F
:101260000325026813430360012005F0FFFA20689C
:1012700001F0E4FA97E40720FFF772F90A20C2E6CA
:101280000320FFF76DF90620BDE63020D1788143B9
:101290008946102148460143D17025E5022154E6D4
:1012A000032152E6023B012B00D89BE403257AE49C
:1012B0000C4A23689446F02263445B01998A0A43EE
:1012C0009A82B3E5074AF0219446236809016344F2
:1012D0005B019A8A0A439A8230E7C04600000740C1
:1012E000FFF0FFFF0038000200F0FFFF0070044035
:1012F000F0B55F46444656464D467B4A0301F0B47E
:10130000D3185C6885B023688346002B1ED1102754
:10131000764A5A445201D58AED04ED0E7F1B02260F
:10132000724AA0689A1852019179C906C90F711AB8
:1013300000286CD0002D0CD02369002B19D005B0EB
:101340003CBC90469946A246AB46F0BD002700251E
:10135000E5E7E3681D781379DB09FCD0ABB2D381F4
:10136000E268236994465B1A61442361E160002BC3
:10137000E5D15E46002E00D190E0092E31D00B2041
:10138000FFF7EEF8594BF5186D01AA7802ABD2B20F
:101390009A71AA780633D2B21A70AA78D2B21A70A9
:1013A0000422A9780A43AA701B78002E00D189E094
:1013B0000B20092E29D040B2FFF7DCF87F21AA7854
:1013C00002ABD2B2DA71AA780733D2B21A70AA7815
:1013D000D2B21A70AA780A40AA701B780023E36080
:1013E000ADE7434D0920FFF7BBF8AA7802ABD2B2B4
:1013F0009A71AA780633D2B21A70AA78D2B21A7049
:101400000422A9780A43AA701B780820D3E722692E
:10141000002A64D001229046FE3200269446354DC3
:10142000002B01D1002F53DDE268012933D012884F
:101430009146002B13D02D4A4046924653445B01FF
:101440009A79120910421ED04A466846C271C27982
:1014500091461A79D209FCD04A46DA7008E02B7915
:10146000DB09FCD063464A461A40224B013FDA8131
:101470002369E2685B1A521876182361E260B3426E
:1014800022D92368CCE71A79D209FCD04A46D20582
:10149000D20DDA81ECE712789146CAE7154D0520A6
:1014A000FFF75EF8AA7802ABD2B29A71AA78063337
:1014B000D2B21A70AA78D2B21A700422A9780A435A
:1014C000AA701B78042076E72268002A00D034E74F
:1014D0007F21084A13790B40137123692DE7002BF4
:1014E00000D046E7F4E7C046E80C002000380002D0
:1014F0002001074000000740F0B556464D465F46C4
:101500004446364A0301F0B4D3185E6885B03368A8
:101510008146002B4FD11F25314F4F447A01D28A8B
:1015200015402F4A02219446012263445B019B79B6
:101530001B091340CB1A9A467368002B02D0337DE7
:10154000002B3CD101239B46FE3398467F01013D91
:101550001ED33368002B22D143463C8A1C40B3691A
:10156000002BF4D04A460092424622400292F26991
:1015700069460392802268460A7198475346022BB7
:10158000E5D1240A02946846B3699847013DE0D248
:1015900005B03CBC90469946A246AB46F0BD5A46C3
:1015A000BB791B091A4203D13C8AE405E40DD6E756
:1015B0007C79E4B2D3E70A4F01254F44B1E700211B
:1015C000B3693175002BBDD00291F1694846039192
:1015D000694600900A7168469847B3E7E80C002016
:1015E00000380002F0B51A4E0501731987B0041EC9
:1015F0005F682AD00920092C25D140B2FEF7BAFF36
:101600006A460420134BE3185B019978C9B2D17183
:101610009978C9B2D1719978C9B2D1719978814359
:101620009970D379BB69002B08D0002202A8826090
:1016300002320271FA690294C26098470023751958
:101640006B7007B0F0BD0230D7E70520D5E7C04684
:10165000E80C002000380002FF2130B540241A4A6F
:101660000301D3185D68194B85B0C3185B011A8A52
:1016700011401A79A2431A711A793F3CA2431A7198
:101680001A79520914420DD06A4620231371AC69AD
:10169000002C05D0EB6900909160D360101CA0472E
:1016A00005B030BD1A791209144206D01B7F6A4674
:1016B0001C4206D110231371E9E76A460423137113
:1016C000E5E708231371E2E7E80C00200038000288
:1016D0001F2318401E3B8340181C014B18607047A5
:1016E00000E100E01F2318401E3B8340181C8023AC
:1016F000014AD0507047C04600E100E001230322B8
:101700004370C37001330270837000207047C0467D
:10171000F0B55F4656464D464446F0B48DB00029BC
:1017200000D16AE1002800D167E1019008680C1C33
:1017300001F01EF9002807D12668BD4B37019846F5
:10174000DB5D0830002B06D00DB03CBC90469946BE
:10175000A246AB46F0BDB74B9A46B30099469B19DB
:101760009B0053449B78002BEED1301C01F054F8C1
:10177000031C0A20002BE7D16369002B40D09A6834
:101780000392002A00D138E11A680492002A00D19D
:1017900033E15B681D1E00D12FE11A68002A00D1D9
:1017A0002BE121680591002902D0092900D024E10C
:1017B0000C239078D178984308239B465B461843C6
:1017C0003F231940A03318400C23994324339943F5
:1017D0002B1C9070D17007AA029223CB23C203CB9B
:1017E00003C2954B059A04989B5C029A13710023DF
:1017F00093605371039B111C1B6898470028A3D169
:101800002369002B00D110E19A680392002A00D1CD
:10181000F3E01A680492002A00D1EEE05B68002B26
:1018200000D1EAE01A68002A00D1E6E021680591BB
:10183000002902D0092900D0DFE0D07883469078D3
:101840005946051C0C2084463330084061468843C5
:101850008346281C884314318843907059460820D9
:10186000084330218843D07007AA029223CB23C2B9
:1018700003CB03C2714B059A04989B5C029A1371C7
:10188000002393605371039B111C1B689847002829
:1018900000D059E7012005F00BF801201F23021C9E
:1018A0009B1B9A406649131C0D682A1C9A430A60C8
:1018B00004F0DCFF634AF22194460022236863446B
:1018C0005B011A709A701A7199710D31597099747F
:1018D0005D49DA711A725A729A72DA721A735A730D
:1018E0001A7399825A834032DA743D3A1A77002E7D
:1018F00000D18FE0092E00D181E00B20FFF7F2FE2E
:10190000002E00D189E0092E7CD00B20FFF7EAFEE3
:10191000002E00D184E0092E77D00B20FFF7E2FEE5
:10192000002E00D17FE00B20092E71D040B2FFF7CE
:10193000D9FE444B7F21F3185B019B469A7806AB96
:10194000D2B29A705A4692780233D2B21A705A467C
:1019500092780120D2B21A705A4692780A405946BB
:101960008A708A7804218A4359468A708A7840218D
:101970008A4359468A701B7801238A8A9A438A824D
:101980008A799A438A714A7A9A434A720A788021FC
:1019900049420A4359460A704A7B9A43131C4B73C7
:1019A000E36806AA1D1C04930023D370274B0299F9
:1019B0005A690292904700281CD1002D1AD00A2E95
:1019C00018D8079B019D0593214B03930023029395
:1019D000039B05981988049B594306F023FB0138A3
:1019E000FE2837D9029B039A0133063202930392F1
:1019F000042BEDD1301C00F021FF0120A4E60820CB
:101A0000FFF770FE0920FFF76DFE0720FFF76AFE63
:101A10000A208BE70420FFF765FE0520FFF762FE32
:101A20000320FFF75FFE062080E707AB029331E754
:101A3000E80C00201C08002090AE0000CCAE000096
:101A4000007004400038000200F8FFFFD8B000002A
:101A50009CAE00006B461B7A06AAD3700321D37894
:101A60005A460B40C0B250701A1C5B461B78019559
:101A70008B4313435A46137093788B4393702379A7
:101A8000013B59425941E2798B00002A01D11022D1
:101A900013436279012A2DD0002A05D1A179803221
:101AA0001A4301292CD0131C5A465373237A002B56
:101AB00004D19379082213435A4693710323424673
:101AC000D3554B46524601219B19A0699B00D21861
:101AD000D060E069917010615246F6B2D654019A16
:101AE00047441670636991709360236900205360C6
:101AF0007A6029E6A279002AD6D140321343D3E78F
:101B0000C0221343D0E7C046F0B583B0002800D10F
:101B10007CE0057804230A2D02D9181C03B0F0BD1F
:101B2000AE00464F73199B00FB189A780723002AD2
:101B3000F3D0041C002D76D0092D69D00B20FFF7BF
:101B4000D1FD002D72D0092D65D00B20FFF7CAFD05
:101B5000002D6ED0092D61D00B20FFF7C3FD002DA5
:101B60006AD00B20092D5CD040B2FFF7BBFD6A465E
:101B70007F20334B7619EB185B019978B600C9B218
:101B8000D1719978BF19C9B2D1719978C9B2D1719F
:101B900099780140997099787B3881439970997848
:101BA0003C3081439970D379002226492B015A5445
:101BB000CB185A705A609A60BA703F3804F078FEB9
:101BC0001F23591B1E3B8B401F48026813430360B1
:101BD000012004F04BFE68001C4B4019C00018188F
:101BE000153004F011FEA368002B03D09A68186822
:101BF000D36998476368002B03D09A681868D36943
:101C00009847281C00F01AFE002386E7012384E78A
:101C10000820FFF767FD0920FFF764FD0720FFF7A5
:101C200061FD0A20A0E70420FFF75CFD0520FFF717
:101C300059FD0320FFF756FD062095E71C080020FC
:101C400000380002E80C002000700440E408002086
:101C5000F0B55F4656464D464446F0B485B09846CA
:101C60000EAB1B7804789B460FAB1F78A3009246FF
:101C70001B19B34A9B00D3189B78061C894607257D
:101C8000002B07D1281C05B03CBC90469946A246C3
:101C9000AB46F0BD630000931819AA4BC0009C46E8
:101CA0006044153004F098FD051E01D00A25E9E7CF
:101CB000002C00D1C0E0092C00D1B2E00B20FFF7CE
:101CC00011FD002C00D1BAE0092C00D1ACE00B20B2
:101CD000FFF708FD002C00D1B4E0092C00D1A6E0EC
:101CE0000B20FFF7FFFC002C00D1AEE00B20092CED
:101CF00000D19FE040B2FFF7F5FC934B7F21E31842
:101D00005B01181C01939A7802ABD2B25A718278A7
:101D10000533D2B21A708278D2B21A7082780A4031
:101D20000421827082788A434021827082788A43BB
:101D3000827040461B78009B1A19824BD2009B1878
:101D4000D8600020191C18815881584610318C46E3
:101D5000494618747B48815052465A606346DF708A
:101D600001233B4200D1002362469370754A009BD9
:101D7000944600221B19DB00634401995A744B7B83
:101D8000103293434B73201C00F0BCFE7368002B91
:101D900004D00222391C9143012958D0B368002B8A
:101DA00003D0BA1E012A00D8A4E0002C00D184E0A0
:101DB000092C61D10720FFF78BFC0A20FFF788FC74
:101DC000019802AB82780633D2B21A708278D2B20E
:101DD0001A708278D2B21A70402281780A438270D7
:101DE0001B78082040B2FFF773FC8021019802ABFA
:101DF00082784942D2B2DA7182780733D2B21A704D
:101E00008278D2B21A7082780A4382701B783023AB
:101E10008278134383707368002B67D0019B5B79D2
:101E200030E70820FFF75EFC0920FFF75BFC072086
:101E3000FFF758FC0A205DE70420FFF753FC05205C
:101E4000FFF750FC0320FFF74DFC062052E799688E
:101E500018683E4B32789C46520162449346434692
:101E60006A464968138013888C465A464946E047BB
:101E7000002893D0051C05E70B20FFF729FC002C58
:101E80001ED0092C99D00B20FFF722FC019802AB41
:101E900082780633D2B21A708278D2B21A708278FF
:101EA000D2B21A70402281780A4382701B78002CCB
:101EB0001AD00B20092C95D193E70320FFF708FCDB
:101EC0000620FFF705FC019802AB82780633D2B2F8
:101ED0001A708278D2B21A708278D2B21A70402206
:101EE00081780A4382701B7804207BE7B368002B5B
:101EF00094D1C7E6424669460A800A881868904627
:101F00009A68134B31789C465368490161445246A4
:101F10009C464346E0470028ACD1022F00D044E75E
:101F20007368002B00D140E700219A681868576851
:101F300043460A1CB847002800D136E7051CA1E635
:101F40001C080020E40800200038000203000740BD
:101F50000500074030B5041C83B00120002C01D0DF
:101F6000012B01D003B030BD002AFBD0257803300F
:101F70000A2DF7D81D1C131C0A1C0221201C0191DC
:101F800000950021FFF764FEECE7C04630B5041C65
:101F900083B00120002C01D0012B01D003B030BD53
:101FA000002AFBD0257803300A2DF7D81D1C201CF1
:101FB000131C009501950022FFF74AFEEEE7C0468C
:101FC00070B582B0041C06A805780120002C01D051
:101FD000012D01D002B070BD002BFBD0267803305C
:101FE0000A2EF7D8201C032400950194FFF730FE39
:101FF000F0E7C046F0B556464D4644465F46F0B45D
:102000004700CA4D3B18DB00EA58EB180E1C191CA0
:1020100092465A68041C91461A7C89B09046020187
:10202000C3481031821852689068002800D1C9E076
:10203000012E00D119E1022E06D009B03CBC904619
:102040009946A246AB46F0BD53685B681B68DB89C6
:10205000002BF2D13022B74BE6187601B3789343C8
:10206000B370002C00D155E1092C00D131E10B20D7
:10207000FFF738FB002C00D14FE1092C00D12BE1F8
:102080000B20FFF72FFB002C00D149E1092C00D1D8
:1020900025E10B20FFF726FB002C00D143E10B20AC
:1020A000092C00D11EE140B2FFF71CFB7F21B27862
:1020B00004ABD2B21A70B2788846D2B21A70B27833
:1020C00005A8D2B21A70B27805940A40B270B278FC
:1020D0007B398A43B270B2783C318A43B2701B7844
:1020E00001230371A300944A1B199B00D3181A699A
:1020F000DB68826089469847002C00D14FE1092CAB
:1021000000D11DE10B20FFF7EDFA002C00D149E1D1
:10211000092C00D117E10B20FFF7E4FA02A98C4645
:1021200009234946B2786344D2B21A70B278D2B267
:102130001A70B278D2B21A70B2788A43B2701B7831
:10214000002C00D143E1092C00D111E10B20FFF755
:10215000C9FA02A98C460A234146B2786344D2B236
:102160001A70B278D2B21A70B278D2B21A70B2784B
:102170001140B1701B78002C00D13DE10B20092CDF
:1021800000D10AE140B2FFF7ADFA02A98C460B2359
:102190000421B2786344D2B21A70B2783819D2B23C
:1021A0001A70B278C000D2B21A70B27828188A4376
:1021B000B27030221B78B37815309343B37004F0BB
:1021C00023FB3AE75068002800D031E7594A93468C
:1021D000A3445A465201012E00D125E152790A71D9
:1021E0005A89013292B25A810B799C463B19DB0025
:1021F000EB181989D86881420CD29B7C002B00D146
:1022000022E14346012B00D1EDE13B19DB00EB1845
:10221000013119813B19DB00EB185B7C002B03D0EB
:102220004346012B00D1D8E13B19DB00EB18DB68FA
:10223000934200D132E1012E00D0FEE63B19DB00D3
:10224000EB18DA7C920700D4F7E65A465201527B2B
:102250009208164203D01B89012B00D8EDE601231A
:102260003C19E4002D196B74E7E6002C00D1C5E0A1
:10227000092C39D00B20FFF735FA7F212D4BE518BB
:102280006D01AA7802ABD2B2DA71AA780733D2B262
:102290001A70AA78D2B21A70AA780A40AA701B786B
:1022A000002C00D1BEE00B20092C31D040B2FFF74A
:1022B0000FFAAA7805ABD2B21A70AA78D2B21A7005
:1022C000AA78D2B21A700422A9780A43AA701B789D
:1022D000B3E60820FFF706FA0920FFF703FA072004
:1022E000FFF700FA0A20DEE60820FFF7FBF97F215E
:1022F000124D02ABAA780733D2B21A70AA78D2B2C2
:102300001A70AA78D2B21A70AA780A40AA701B78FA
:102310000920CBE70420FFF7E5F90520FFF7E2F9F4
:102320000320FFF7DFF90620BDE6C046E4080020E1
:10233000E80C0020003800021C08002020010740A3
:102340000720FFF7CFF90A20FFF7CCF902A98C4646
:1023500009234021B2786344D2B21A70B278D2B263
:102360001A70B278D2B21A70B2788A43B2701B78FF
:102370000820FFF7B7F902A98C460A237F21B2781B
:102380006344D2B21A70B278D2B21A70B278D2B2B2
:102390001A70B2780A40B2701B780920F2E6032066
:1023A000FFF7A0F90620FFF79DF902A98C46092343
:1023B0004021B2786344D2B21A70B278D2B21A70A5
:1023C000B278D2B21A70B2788A43B2701B78042005
:1023D000FFF788F902A98C460A237F21B27863446B
:1023E000D2B21A70B278D2B21A70B278D2B21A706F
:1023F000B2780A40B2701B780520C3E60420FFF7CC
:1024000071F97F21AA4D02ABAA780733D2B21A70B4
:10241000AA78D2B21A70AA78D2B21A70AA780A40F0
:10242000AA701B78052041E701925079C0B208716B
:10243000527B8446920816420ED01A1C1B89083221
:10244000002B09D15288D1E65B4658010379DB099C
:10245000FCD0FF23C370D8E6002C00D1CEE00820CA
:10246000092C00D0033040B2FFF73CF97F210198DE
:1024700002AB82780333D2B21A708278D2B21A7069
:102480008278D2B21A7082780A4082701B783B1927
:10249000DB00EB185A891B7D9C46A7E65B465B0177
:1024A000984630229B78934342469370002C00D18B
:1024B000B1E0092C00D1A3E00B20FFF713F9002CA9
:1024C00000D1ABE0092C00D19DE00B20FFF70AF909
:1024D000002C00D1A5E0092C00D197E00B20FFF7DC
:1024E00001F9002C00D19FE00B20092C00D190E0D5
:1024F00040B2FFF7F7F843469A7803ABD2B21A70AE
:10250000424692787F21D2B21A7042469278D2B275
:102510001A70424692780A4041468A708A780421AD
:102520008A4341468A708A7840218A4389464146D7
:102530008A701B78A3005F4A1B199B00D318DA68C6
:10254000002A43D001211B6905A80594017183600D
:102550009047002C00D18EE0092C67D10720FFF7AF
:10256000C1F80A20FFF7BEF843469A7802ABD2B210
:102570005A71424692784021D2B25A7142469278BC
:102580000533D2B21A70424692788A4341468A7025
:102590001B78082040B2FFF7A5F843469A7802ABB3
:1025A000D2B29A71424692787F21D2B29A71424653
:1025B00092780633D2B21A70424692780A40414667
:1025C0008A7030221B788B7893438B703819C00047
:1025D0002818153004F018F92DE64B4661469B1873
:1025E000013B197020E653465B5C9A465B465801F6
:1025F0000379DB09FCD05346C37006E6042032E7BA
:102600000820FFF76FF80920FFF76CF80720FFF7A5
:1026100069F80A206CE70420FFF764F80520FFF74B
:1026200061F80320FFF75EF8062061E70B20FFF753
:1026300059F8002C22D0092C93D00B20FFF752F828
:1026400043469A7802ABD2B25A71424692784946D2
:10265000D2B25A71424692780533D2B21A704246CB
:1026600092788A4341468A701B78002C1ED00B203A
:10267000092C8FD18DE70320FFF734F80620FFF7F0
:1026800031F843469A7802ABD2B25A7142469278F8
:102690004021D2B25A71424692780533D2B21A70B2
:1026A000424692788A4341468A701B78042071E73B
:1026B000000007401C080020830010B51D4A1B18AD
:1026C0009B00D318DA6884B0041C002A10D01A4B7F
:1026D0000190C3185B0119790120890615D4197975
:1026E000C908084215D0052369460B7201A8904716
:1026F0006000124B0019C0001818153004F084F85F
:10270000201C00F09BF804B010BD062369460B7234
:10271000ECE7597B0909084207D11B791B091842CC
:10272000E4D0072369460B72E0E7032369460B7286
:10273000DCE7C0461C08002000380002E408002046
:102740001F2318401E3B8340181C8023014AD05091
:102750007047C04600E100E008B5074B0201D35CBA
:10276000012B06D0032B00D008BD0121FFF742FC4E
:10277000FAE7FEF7BDFDF7E7E80C002010B50B4BBC
:102780000201D35C041C012B0DD0032B08D0084B95
:1027900038229C466444640123799343237110BD1D
:1027A000FFF78AFFF3E7FEF757FFF0E7E80C00209A
:1027B0000038000208B5074B0201D35C012B06D09C
:1027C000032B00D008BD0221FFF714FCFAE7FEF747
:1027D00009FFF7E7E80C002038B50D4B0201D55C86
:1027E000041C012D06D0032D00D038BD0021FFF7B9
:1027F00001FCFAE7FEF780FE064B40229C4664444B
:1028000064012379934323712379AB432371ECE76C
:10281000E80C00200038000208B5092807D0043071
:10282000C0B203F0F5FF082806D0002008BD033829
:1028300003F0EEFF0828F8D10A20F7E708B50928C9
:1028400004D00430C0B203F0FFFF08BD033803F02A
:10285000FBFFFAE770B5041C82B0002800D175E0D8
:10286000092868D00B20FFF76BFF002C00D170E027
:10287000092C63D00B20FFF763FF002C00D16BE025
:10288000092C5ED00B20FFF75BFF002C67D00B20DC
:10289000092C59D040B2FFF753FF6A467F25042028
:1028A000304B0732E3185B0199780326C9B21170E7
:1028B0009978C9B211709978C9B211709978294084
:1028C000997099788143997099783C3081439970D7
:1028D000102112789A7820388A439A7002229978C7
:1028E00081439970997811409A78B2430A439A705B
:1028F000DA792A400025DA71DA798243DA711F38F1
:102900001D7203F0D5FF1F2301211B1B99400B1CD7
:102910001548026813430360012003F0A7FF201C41
:10292000FFF78CFF114B2401E5541C19657065609D
:10293000A56002B070BD0820FFF702FF0920FFF775
:10294000FFFE0720FFF7FCFE0A20A3E70420FFF7A5
:10295000F7FE0520FFF7F4FE0320FFF7F1FE062047
:1029600098E7C0460038000200700440E80C0020E0
:10297000012804D90938431E98418000704700207F
:10298000FCE7C04600B5012083B005F02FFA002017
:10299000FFF7E2FE042003F079FEC423044A9B0003
:1029A000D35801200193019B05F01EFA03B000BD2E
:1029B0000060004000B5012083B005F017FA09203F
:1029C000FFF7CAFE082003F061FEC823044A9B00FB
:1029D000D35801200193019B05F006FA03B000BD16
:1029E0000060004000B5012083B005F0FFF9002031
:1029F000FFF7F2FE032003F049FEC323044A9B00C5
:102A0000D35801200193019B05F0EEF903B000BDFE
:102A10000060004000B5012083B005F0E7F909200F
:102A2000FFF7DAFE072003F031FEC723044A9B00BC
:102A3000D35801200193019B05F0D6F903B000BDE6
:102A40000060004000B5012083B005F0CFF9002000
:102A5000FFF794FE062003F019FEC623044A9B00EC
:102A6000D35801200193019B05F0BEF903B000BDCE
:102A70000060004000B5012083B005F0B7F90920DF
:102A8000FFF77CFE0A2003F001FECA23044A9B00E4
:102A9000D35801200193019B05F0A6F903B000BDB6
:102AA0000060004000B5012083B005F09FF90020D0
:102AB000FFF780FE052003F0E9FDC523044A9B00D3
:102AC000D35801200193019B05F08EF903B000BD9E
:102AD0000060004000B5012083B005F087F90920AF
:102AE000FFF768FE092003F0D1FDC923044A9B00CB
:102AF000D35801200193019B05F076F903B000BD86
:102B00000060004008B500280BD0092808D1082033
:102B100003F0BCFD072003F0B9FD0A2003F0B6FD69
:102B200008BD042003F0B2FD032003F0AFFD062032
:102B300003F0ACFDF4E7C0460123022243700270AB
:102B4000C370837000207047062070470C4A031C36
:102B50000320934200D9704700290ED01A0AFC3096
:102B600012010340D318074A9B00944663441B6834
:102B700000209B07DB0F0B70EDE70120EBE7C04661
:102B80000209000000080440902203231201904231
:102B900001D9181C7047002908D0054B000A9C4633
:102BA0004001604403680B800023F2E70123F0E753
:102BB0000400044010B50323002A01D1181C10BDE5
:102BC00090242401A042F9D8064B000A9C46131C0D
:102BD0008B431B0440010A401A43604402600023F7
:102BE000ECE7C0460800044010B50323012901D9D1
:102BF000181C10BD154A9042FAD8030A1A01FF2387
:102C000018401318124A9B00944663441A6801291D
:102C10001AD001218A43111C00240E480E4AC470A8
:102C20004034C4700A401C68C80305D50B482040D6
:102C300018600B48014019601A600022054BDA70D9
:102C40008032DA700023D3E71143E5E70209000080
:102C500000080440000D0440D5FC011FFFFFFEFFEB
:102C6000D5FC001F10B50323002A01D1181C10BD8C
:102C700090242401A042F9D8094B000A9C460B1C61
:102C80004001604404681340234304689BB2240C51
:102C90008A4324049343234303600023E6E7C046AA
:102CA00000000440902203231201904201D9181C15
:102CB0007047002909D0064B000A9C464001604439
:102CC00003681B0C0B800023F1E70123EFE7C046EC
:102CD00004000440104A031C10B50320934200D99D
:102CE00010BD002916D00D481A0A8446FF20034063
:102CF000FE38041C9C40520162441268A3B2120CBC
:102D00001A40934203D0002300200B70E8E70870BC
:102D10000020E5E70120E3E7020900000400044089
:102D200010B5902403232401A04201D9181C10BD22
:102D3000002AFBD0064B000A9C46131C8B431B0445
:102D400040010A401A43604442600023EEE7C04657
:102D500008000440104A031C0320934200D9704726
:102D60000129FCD81A1CFC308243034001290ED0F3
:102D7000802149029940090C0B0400210748120ADE
:102D8000844652016244194351600020E7E79940AC
:102D90000904090C0023F1E70209000008000440BF
:102DA000F0B55F4656464D464446F0B400283AD04A
:102DB00003880021002B2FD0FF239946BF3B984664
:102DC00080235B029C46802300259A46174C42686C
:102DD0004E469346CB005B449A881F68130A1B013A
:102DE00032409B18124A6646934642469B00E57065
:102DF0005B44E2701A68374205D00E4E32401A60CA
:102E00003A1C32401A601F605346E570E37001318E
:102E1000038889B28B42DAD800203CBC90469946A0
:102E2000A246AB46F0BD0120F7E7C046000D0440C6
:102E300000080440FFFFFEFF114A031C03209342D9
:102E400000D970471A0AFC3012010340D3180D4A0A
:102E5000002094460C4A9B00D07040306344D070F0
:102E60001868CA0304D5094A10400A4018601A605D
:102E700000221960044B0020DA708032DA70E0E73B
:102E80000209000000080440000D0440FFFFFEFF9F
:102E900010B50323012901D9181C10BD154A904211
:102EA000FAD8030A1A01FF2318401318124A9B008C
:102EB000944663441A68002919D004210A43002467
:102EC0000E480F49C4704034C47011401C68D003D0
:102ED00005D50C48204018600B4802401A600022BB
:102EE0001960064BDA708032DA700023D4E70431BF
:102EF0008A43E4E70209000000080440000D044092
:102F0000D5FC011FFFFFFEFFD5FC001F031E07D0ED
:102F1000027A0949900041580720994202D070472F
:102F20000120FCE7054B01219C4662441202D36A52
:102F300000208B43D362F2E7D409002080074000D1
:102F4000031E07D0027A0949900041580720994290
:102F500002D070470120FCE7054B00209C4601236E
:102F600062441202D16A0B43D362F2E7D409002013
:102F70008007400010B5031E09D0002907D0027A4F
:102F800008489400245807209C4202D010BD01201C
:102F9000FCE7054B00209C4662441202936C0B60D8
:102FA000F4E7C046D40900208007400082B0002822
:102FB00006D0044B1B6803600020019302B07047E9
:102FC0000120FBE770AF0000F0B51D1C002385B0A9
:102FD0000393404B041C5B690F1C032003A9161CC0
:102FE00001939847062E00D972E03B4BB6009B59DF
:102FF0009F46039800213A1C002305F0CFF9002CCE
:1030000007D100230A9A137000222860101C05B013
:10301000F0BD002957D0314F002301E0052B4CD0E3
:103020008A0780088E0801331043311CDBB2002E62
:10303000F4D1B842F2D8002CE4D0284903228842C7
:10304000E4D8DFE7039A0023381C002105F0C6F915
:10305000234A002305F0A2F9002CDAD101277F4290
:103060000029D9D1CDE7039A381C0023002105F0AF
:10307000B5F91C4A002305F091F9EDE7039A381CD5
:103080000023002105F0AAF9FA220023920005F09E
:1030900085F9E1E7381C039A0023002105F09EF929
:1030A000DAE7FA2292007A4303980023002105F020
:1030B00075F9A4E7381C0021A1E70322002CA5D153
:1030C000002EA3D19EE7054B98429AD9034FA3E760
:1030D00003229BE7D8B0000010AF0000FFFF000004
:1030E00000CA9A3B40420F0070B5031C84B0002810
:1030F00008D0047A1A48A5002D5807209D4203D015
:1031000004B070BD0120FBE704380029F8D00B257E
:1031100000236D442B7003930095201C03ABFFF735
:1031200053FF0028ECD10F4B01269C460722644434
:103130002402E16AE36AB343E3622B78E56A134051
:103140001A06094B2B4013430A1CE362039B3240CF
:10315000013B6366A064E36AB3431343E362CFE7D2
:10316000D409002080074000FFFFFFF870B5031C62
:1031700084B000280AD0002908D0027A214894009F
:10318000245807209C4203D004B070BD0120FBE707
:103190001D4B01269C4662441202536E00220133ED
:1031A0008B60237A039263441B02DB6A1B0E184078
:1031B000431EDBB2042B02D8144A9B009E58144BCA
:1031C0000D1C5B6903A90320019398470398311CE8
:1031D00004F028FF0C4A686094460122237A634475
:1031E0001B021B6B13402B70237A63441B02DB6AA8
:1031F0001A4202D12A730020C6E7002300202B7355
:10320000C2E7C046D4090020800740002CAF000070
:10321000D8B0000038B5041C1D1C012A24D0002A97
:1032200017D0022A01D0032038BD1C4B994212D07E
:10323000081C2A1C0023002105F0D0F8174A00239F
:1032400005F0ACF8002C1DD1431C1ED100291CD167
:1032500006E099421ED16042604143421048184343
:10326000049B18600020DFE76429F4D01A1C081CB6
:103270000023002105F0B2F86422002305F08EF847
:10328000002CE1D0064B9842E0D00029CBD1A842D7
:10329000C9D8E5E7081C0021F2E7C046A086010076
:1032A000FFFF000010B5031E07D0027A11499200FB
:1032B000525807209A4202D010BD0120FCE772B696
:1032C0000D49137A8C4663441B02D96ADC6A0638BE
:1032D0008443DC620024137A014063441B029C6433
:1032E000137A63441B02DA6A82430A43DA6262B6E3
:1032F0000020E1E7D409002080074000002904D124
:10330000002A10D0012A32D070474B1C1BD0234B0F
:103310009C4660440002002A11D1026B204B1340EE
:1033200003634165F0E71D4B9C4660440002026B5D
:103330001B4B13408022920213430363E4E7012AEC
:103340000FD08165E0E7002A1DD0012ADCD1134BA4
:10335000C0229C4660440002036B92041343036343
:10336000D2E7026B0F4B134003638165CCE70B4B35
:103370009C4660440002026B0A4B13408022920478
:1033800013430363C0E7054BC0229C466044000220
:10339000036B920213430363B6E7C0468007400005
:1033A000FFFFFCFFFFFFFFFCF0B585B000281CD03D
:1033B000067A01250D2E02D9281C05B0F0BD1F1C70
:1033C000002303930A4B041CF3181B025B6E03A833
:1033D00000900133301CFFF71DFF051EECD1207A51
:1033E00003993A1CFFF78AFFE6E70125E4E7C046A8
:1033F0008007400038B5031E07D0027A254D9100A2
:103400006C5807209C4202D038BD0120FCE7224BBB
:10341000C0219C4662441202936B8B439363237AD0
:10342000BF3963441B02DA6A8A43DA62237A1B4A91
:10343000D25C50B20A2823DD174A944663441B022B
:10344000D98E174A1140D986237A63441B02998E7C
:103450000A409A86207A1A30C0B203F0F5F90122A8
:10346000237A10499A4008689B009043EA58086004
:10347000002A0DD000210020116051605951C3E78E
:103480001F231A409140084A6133D150237AD3E771
:103490000020B9E7D40900208007400068AF000091
:1034A000FFFEFFFFF009002000E100E0F0B5574605
:1034B0004E464546E0B486B000236A460493D37373
:1034C000002900D1D0E0002800D1CDE04A7C0133B2
:1034D000062A06D9181C06B01CBC90469946A2467E
:1034E000F0BD1A32D7B2041C381C0D1C03F090F941
:1034F00008230028EED107336B44687C2A7A0093B6
:10350000696804ABFFF760FD061E00D0AEE06B6992
:10351000002B00D17DE16A7CC6498A560A2A00DD6B
:1035200072E12360AB6963606E7CC34A26726B7C78
:103530009B009C502B78012B04D1B340BF4A1168EB
:103540000B431360012003F0B3F9002E00D092E08A
:103550002021BB4A93688B439360012003F086F9D6
:10356000B84A01219446237A882063441B02DA6A10
:103570008A43DA62A522237A120263441B021A608C
:1035800000221A615A615A61DA611A625A629A62B9
:10359000DA62196302395A639A63DA631A649A64C5
:1035A000D964196559659965596699661A50043048
:1035B00019502B7805929046022B62D06B46A14A97
:1035C000277A0226BC182402E06A9F4ADB7B02406D
:1035D00001200499E262226B32432263226B024390
:1035E0002263226BB243226307221340E66A1A0663
:1035F000964B33401343E3624B1E63660023A36480
:10360000EE699A46002E06D03378002B00D089E070
:10361000B378002B43D1C022A36B9343803A13436A
:10362000A3636B69002B00D1C0E06B7C814A8848A2
:10363000D25C884953B2C0339B001E5831401950A8
:103640001F23134001229A40C021131C824A4900C3
:1036500053501360AA7C0023002A00D13AE70122CC
:10366000E16A0A43E26235E7012333E7381C03F0DD
:10367000EBF8331C2EE74021714A93688B4393602B
:103680006BE705AB207A2A7C0093E968049BFFF77F
:10369000C1FD031E00D01DE7059B98468EE7012261
:1036A000F37810261A401101A28E2878B2430A43FB
:1036B0000321A2860B409A01A38EB036B343134375
:1036C000A3860C23A28E1343A386012800D180E099
:1036D000A38E002800D179E00C22934308221343E3
:1036E0000122A386A38E381C8B431343A386226C2E
:1036F0005A4B414613408022D202134323640122D5
:10370000FFF7FCFD4346002B74D1226B544B134052
:1037100080229204134323638022A38E520013431A
:10372000A38678E7102172782B7810409C4603011D
:10373000E08E88431843E086032002409301E28E26
:10374000B0318A431A430C23E286E28E1343E386A8
:103750006346012B33D06346002B2CD00C22E38E22
:1037600041469343082213430122E386E38E8343B9
:103770001343E386236C3B4A381C13409146802256
:103780005202134323640022FFF7B8FD4346002B87
:1037900026D14A46236B13408022920213432363AF
:1037A0008022E38E52001343E38631E72B78012B0E
:1037B00000D04FE739E7E38E8343E386F0E75346D3
:1037C000E3640323E28E1343E386E9E78B43A38696
:1037D000A2E7002323650323A28E1343A3869BE75E
:1037E000434601331AD04A46236B134023634346B2
:1037F0006365D5E74346013316D0226B184B13405F
:1038000023634346A36587E7381C03F01DF80B23A9
:1038100060E62A78012A00D086E67CE6C022236B87
:10382000920213432363BBE7C022236B920413432A
:10383000236371E768AF0000D4090020F00900207D
:103840000070044080074000FFFFF8FFFFFFFFF813
:1038500000600040FFFFFEFF00E100E0FFFFF3FF1C
:10386000FFFFFFFCFFFFFCFF00B5012083B004F069
:10387000BDFA0122134B1B6813420DD0124BD96ABB
:1038800091430022D962C0219A649A6B8A439A6359
:10389000DA6B80398A43DA63C2220C499200885875
:1038A0000B4B03408B500B4B1A681368002B03D053
:1038B0005268684600929847012004F095FA03B0D8
:1038C00000BDC046F00900200080074000600040B5
:1038D000FFFFFEFFD40900209623C022A5216D2002
:1038E00010B5DB0182B00193264B52009950803A0B
:1038F00013399954985499549B5C922B40D0224C84
:1039000003202368D96B00F05DFBC022A521ED20C8
:103910001C4B52009950803A9339995498549954B9
:103920009B5C122B2AD0C022A521F720154B5200F8
:103930009950803A9D399954985499549B5C082B1E
:103940001AD023680620D96B00F03CFB0D490F4AC2
:103950000F4B8B528B5A002B06D10AE0019B013B87
:1039600001938B5A002B04D0019B002BF6D114201D
:1039700000E0002002B010BDC046E2E7C046D2E73A
:10398000C046BCE700C07E40F4090020B23F000002
:1039900000AAFFFF30B5822401250B4B64001A5D9D
:1039A000AA431A558822040C52009C5280B2083A4D
:1039B0009852080C1832985089B2083A99528321CB
:1039C000043A995430BDC04600C07E40962230B5BE
:1039D000124952008B5808205B0600D430BD8A2360
:1039E000002001255B00C8540D4B1C68E36A63612D
:1039F0008858800905420CD0101C0125002B02D1EB
:103A000009E0002B07D0013B63610A589209154277
:103A1000F7D10020E2E71420E0E7C04600C07E4076
:103A2000F4090020014B18607047C046F4090020DB
:103A3000EC220B4952008B5C01280AD0002804D0EC
:103A40003F2003408B5400207047403803438B5481
:103A5000F9E73E300340BF3803438B54F3E7C046D9
:103A600000C07E409623962100B5DB0183B01A4A40
:103A700001934900535808201B0601D403B000BD30
:103A8000EE2300205B00D05053580130DB09184270
:103A90000ED0019B0120002B03D118E0019B002BCD
:103AA00015D0019B013B01935358DB091842F5D116
:103AB0009423094A5B00D158890604D4D3580122C3
:103AC0009B081A4205D000F0F3FB1820D6E714201B
:103AD000D4E70020D2E7C04600C07E4038B582243B
:103AE00001220E4B64001D5D80012A431A55982265
:103AF000000C520089019850090C0832995082211B
:103B0000A4329950FFF7AEFF0828FBD0822201248F
:103B1000024952008B5CA3438B5438BD00C07E40E9
:103B20008221012210B50D4B4900585C02435A54C2
:103B300000222C315A5008315A50DD32B639FF324A
:103B40009950FFF78FFF0828FBD0822201240349F8
:103B500052008B5CA3438B5410BDC04600C07E4016
:103B60008221012210B50F4B49005C5C0002224308
:103B70005A549C220021520099508022D2011043B5
:103B80009822520098508131AC329950FFF76AFF69
:103B90000828FBD082220124024952008B5CA343F7
:103BA0008B5410BD00C07E4008B501219023064A09
:103BB000D154D35C012B00D1C046044B06201B68B6
:103BC000D96B00F0FFF908BD00C07E40F809002065
:103BD00010B5204B204A2149214CD15223681A7E2E
:103BE000002A02D001211F4A1160D96B062000F083
:103BF000E9F9A0231C4AD35C9B071BD1C022A52155
:103C0000EF20154B52009950803A953999549854A9
:103C100099549B5C102B1BD023681F249B6BEC21B9
:103C2000013B23401A1C0C484900435CA343134347
:103C3000435410BDC022A521AF20074B520099501C
:103C4000803A55399954985499549B5C502BE3D140
:103C5000C046E1E7B23F000000C07E4080AAFFFFFF
:103C6000F809002000E100E000E001409623C022B6
:103C7000A521F72000B5DB0183B00193144B52005E
:103C80009950803A9D399954985499549B5C082BCB
:103C90001BD0104B06201B68D96B00F093F90C4920
:103CA0000D4A0E4B8B528B5A002B06D10AE0019B1A
:103CB000013B01938B5A002B04D0019B002BF6D1C2
:103CC000142000E0002003B000BDC046E1E7C0467C
:103CD00000C07E40F8090020B23F000000AAFFFFAC
:103CE0000F4B30B51B6882249A6000220125596071
:103CF0001860DA600B4B64001A5DAA431A550A4A31
:103D00009446882261440C0C52009C5289B2083AB5
:103D1000995201782832995081211C3A995430BD2A
:103D2000F809002000C07E400000F0BD962238B5A2
:103D3000284952008B5808205B0600D438BD8A23DE
:103D4000002001255B00C854234B1C68236B636172
:103D50008858800905420CD0101C0125002B02D187
:103D600031E0002B2FD0013B63610A5892091542C4
:103D7000F7D1F822174B52009958C90625D40121D2
:103D80009A585208114220D1256800206A1C2260EE
:103D90006268511C6160A1680139A1600029CDD021
:103DA0000E498C4688216244100C4900585292B248
:103DB00008395A52982269785200995081211C3A48
:103DC00099540820BAE71420B8E700F071FA1820D7
:103DD000B4E7C04600C07E40F80900200100F0BDF5
:103DE000134B10B51A68012450608220136AD46006
:103DF0005361104B91604000195CA14319540E4867
:103E00005268844688200D49400051180C0C1C5201
:103E100089B20838195290216244100C4900585058
:103E200092B208395A528A2294395200995410BDDC
:103E3000F809002000C07E40FF03F0BD0000F0BD87
:103E4000962238B52A4952008B5808205B0600D4C8
:103E500038BD8A23002001255B00C854254B1C680F
:103E6000236A63618858800905420CD0101C012523
:103E7000002B02D136E0002B34D0013B63610A589D
:103E800092091542F7D1F822194B52009958C906E8
:103E90002AD401219A58114226D180226168D20089
:103EA0008A186260A568E2680020AA4217D2124808
:103EB000124A844688208A18150C40001D5292B27E
:103EC00008381A5290226144080C5200985089B266
:103ED000083A995284210820043A9954E268013240
:103EE000E260B5E71420B3E700F0E2F91820AFE78D
:103EF00000C07E40F8090020FF07F0BD0004F0BDBF
:103F000030B5822401250D4B64009C460C4B604467
:103F10001A5D6144AA431A558822040C52009C522F
:103F200080B2083A9852080C1832985089B2083A70
:103F300099528321043A995430BDC0460000F0BD27
:103F400000C07E40962238B5174952008B58082091
:103F50005B0600D438BD8A23002001255B00C854CD
:103F6000124B1C68E36A63618858800905420CD0D3
:103F7000101C0125002B02D10FE0002B0DD0013BBE
:103F800063610A5892091542F7D1F823064A5B008B
:103F9000D358DB0603D40020DCE71420DAE700F076
:103FA00087F91820D6E7C04600C07E40F8090020F7
:103FB000014B18607047C046F809002001380028FE
:103FC000FCD17047484308B5800801D0FFF7F6FFE1
:103FD00008BDC04638B5002808D1012180230C4A0D
:103FE0000020D15002F052FB002038BD4B68022067
:103FF000002BFAD0074A01251360C023044C5B0054
:104000000020E55002F042FB25600020EDE7C046AD
:1040100000E100E0000A0020F0B54F462B4B80B4D1
:1040200018600B2382B0071C03742949806B03F0CE
:10403000F9FF2749041CB863F86B03F0F3FF8146CE
:10404000F863201C06F054FA041C0D1C221C2B1CC7
:104050000020204905F0DEF800900191484606F066
:1040600047FA021C0B1C0098019905F0F7FB06F0BB
:1040700009FA194B061C43437B63184B221C43432C
:104080003B6303011B1A5B00FB6200202B1C1449DD
:1040900005F0C0F800220F4B05F0E0FB04F0E0F95A
:1040A0004B4658430F4B002173437B620E4B0F4A24
:1040B00073433B620E4BB8625E43FF239B01FE617C
:1040C000D15402B004BC9146F0BDC046FC090020AA
:1040D00040420F0000004E4070170000A406000090
:1040E0000000494000530700C0D4010000C07E40DA
:1040F0001027000008B50B4A0B4BD25A1923802A0F
:1041000001D0181C08BDFFF76BFE084B1B681A7E18
:104110000023002AF5D1FFF793FE0828FBD0031CEB
:10412000EFE7C04600C07E40B23F0000FC0900201F
:1041300070B500240E4D0F4E2B68DC600E4C59609C
:104140001860365BFA246400802E01D0201C70BDFC
:104150009A60FFF7C5FD2B6800241B7E002BF5D16C
:10416000FFF7E4FD041E082CFAD0FFF77FFDEDE712
:10417000FC09002000C07E40B23F000038B5141C8E
:10418000354B364AD55A802D05D0D25A0023012A04
:104190002DD0181C38BD01390918FFF7B1FE304B7E
:1041A0001B681B7E002B48D1FFF7CCFE031E082B9B
:1041B000FAD00028EDD19423284A5B00D35801227D
:1041C000DB0813403FD0227092220121234B520082
:1041D000985C014301209954995C814399541E4A8B
:1041E0009B5A802B34D0FFF741FD0023D1E70139E2
:1041F0000918FFF7CFFBFFF7E9FB0828FBD0031EE8
:10420000C7D1164A2933FF33D3580122DB081340A4
:1042100017D1237092220121104B5200985C014368
:1042200001209954995C814399540B4A9B5A802BE5
:104230000BD0FFF751FB0023ABE7022323700023D1
:10424000A7E72270E6E72370BEE7FFF70FFDF0E770
:10425000FFF70CFDC7E7C046B23F000000C07E403C
:10426000FC09002008B50323012801D0181C08BD53
:10427000FFF7AEFC044B054AD35A802B02D0FA2339
:104280005B00F3E70023F1E7B23F000000C07E408F
:1042900008B5054A054BD35A802B01D0002008BD34
:1042A000FFF7E4FCFAE7C04600C07E40B23F0000E2
:1042B0009222012108B5084B5200985C014301206D
:1042C0009954995C81439954044A9B5A802B00D09D
:1042D00008BDFFF7CBFCFBE700C07E40B23F00000B
:1042E00030B5012083B003F081FD002002F0CEF94B
:1042F0002F4D2B681C7C082C18D0092C39D00A2C87
:1043000044D06C46072323702A4B2B4AD35A802B68
:104310001AD000F05BFA294B1B68002B01D0201C3F
:104320009847012003F060FD03B030BDFFF7FEFCAD
:10433000A04380B200280AD12B689B68002BF0D1E3
:104340006C4601232370DFE7FFF790FCE1E7922240
:104350000121194B5200985C014301209954995C4A
:1043600081439954134A9B5A802BCAD1FFF77EFC94
:10437000C7E7FFF765FD124B1840E8D12B68DA68F4
:104380009B689A42CDD96C462070BDE7FFF7DAFDF5
:104390000B4B1842DBD19423074A5B00D3586C4681
:1043A0001B0702D402232370AEE703232370ABE77D
:1043B000FC090020B23F000000C07E40000A00203F
:1043C000F7FF000010B5002918D0002816D01720DC
:1043D000002B00D110BD0A4804780720002CF9D02A
:1043E000084C0F30A242F5D8081CCB18441AA45C24
:1043F000047001309842F9D10020EBE70120E9E791
:10440000250A0020FF0F104082B0002806D0044B80
:104410001B6803600020019302B070470120FBE796
:10442000E8AF000070B50D4C061C23780D1C0C483D
:10443000022B07D002F0D0F9031C0820002B00D17A
:10444000257070BD02F0C8F9002804D1301C257019
:10445000FFF708FFF5E70820F3E7C046240A00202D
:10446000880D002008B5002811D0132002F0ECF9C7
:1044700000210020FFF7AEFD0022064B06481A700F
:10448000064B02321A7002F0BFF9002008BD01206D
:10449000FCE7C046250A0020880D0020240A0020E1
:1044A000034B18780238431E9841C0007047C0463D
:1044B000240A002008B5002808D0054B07201B78E7
:1044C000002B00D108BDFFF7EBFFFBE70120F9E768
:1044D000250A002070B5134B134D5B6982B005208F
:1044E000291C01939847041E06D12E1C2B68383EC8
:1044F000032B04D8FB246400201C02B070BD291DCE
:104500000620019B9847041EF6D1301CFFF784FD5E
:10451000301CFFF787FA301CFFF74AFDFFF744FB1A
:10452000EAE7C046D8B00000C40D0020F8B5002965
:1045300028D0002826D013200D1C02F069F9041E93
:1045400002D00A24201CF8BD02221D4E1D4F3378D4
:10455000934319D02B781C4A1376002B1CD0686823
:10456000291C431E9841C0B2FFF734FD051E17D029
:104570000223381C337002F047F9132002F064F96B
:104580002C1CDFE70124DDE7381C02F025F90028A8
:1045900014D101233370DDE70020291CFFF71AFD39
:1045A000FFF798FF0223051C381C337002F02CF92A
:1045B000002DE2D10122054B1A70C3E70824C1E7A0
:1045C000240A0020880D00208C0D0020250A0020E0
:1045D00070B500280BD01A4B07201B78002B05D094
:1045E000161C0D1CFFF75CFF082802D170BD0120CE
:1045F000FCE70728FAD01620002DF7DB80239B026A
:104600009E42F3D8B542F1D800200621FFF70AFFF9
:10461000041E09D0FFF74CFE02220A4B0A481A700A
:1046200002F0F2F8201CE1E7281C311CFFF756FAD3
:10463000041EEFD1FFF72CFE041EEDD0EAE7C046C2
:10464000250A0020240A0020880D002010B500282B
:104650000AD0144B07201B78002B04D0FFF720FF53
:10466000031E082B02D110BD0120FCE7072BFAD056
:1046700000200621FFF7D6FE041E09D0FFF718FE22
:104680000222094B09481A7002F0BEF8201CEAE722
:10469000FFF746FA041EF1D1FFF7FAFD041EEFD032
:1046A000ECE7C046250A0020240A0020880D0020DF
:1046B00008B500280FD0094B07201B78002B00D12C
:1046C00008BDFFF7F5FD0222054B06481A7002F0FF
:1046D0009BF80020F4E70120F2E7C046250A0020FD
:1046E000240A0020880D002070B500280CD01E4B35
:1046F00007201B78002B06D0161C0D1CFFF7D0FEE0
:10470000031E082B02D170BD0120FCE7072BFAD055
:10471000022D18D1002EF6D000200721FFF782FECF
:10472000041E1DD1281CFFF783F9041C002C17D18F
:10473000FFF7AEFD041C02220C4B0D481A7002F06C
:1047400063F8201CDFE700200721FFF76BFE041E43
:1047500006D1002EE6D1281CFFF702FA041CE5E77B
:10476000FFF7A6FDE7E7C046250A0020240A00203F
:10477000880D002070B500280AD0114B07201B7847
:10478000002B04D0FFF78CFE031E082B02D170BD56
:104790000120FCE7072BFAD00A4D281C02F01CF878
:1047A000094E002801D108233370FFF793FE02233E
:1047B000041C281C337002F027F8201CE7E7C046D1
:1047C000250A0020880D0020240A0020022208B5B6
:1047D000024B03481A7002F017F808BD240A0020A3
:1047E000880D0020F8B54F464646214BC0B498428C
:1047F00018D801231F4C0B77A568854202D8E668BC
:10480000B04218D9221CA56A276820320123A84289
:1048100003D3E66A141CB0420ED9181C0CBC904697
:104820009946F8BD144B154AC41800239442F4D895
:104830000B77134CE0E70027636888469946191CFC
:10484000401B03F0EFFB4B46424643435B191361A9
:104850004A46013AD3184246C71953619761434605
:104860009560D6604A465A6022681A600123D4E7F0
:10487000FFFF010074AF00000000F0BFFF0F000059
:10488000ECAF0000F8B54F464646C0B43F4E071C9B
:104890008946101C311C151C9846FFF7A3FF1624EF
:1048A000002804D1201C0CBC90469946F8BD002F6E
:1048B00033D043460134002BF4D0354B103C1B78E9
:1048C000002BEFD0FFF7ECFD041E082CEAD00728E0
:1048D000E8D0337F002B22D02E4B16249D42E1D806
:1048E000AA07DFD14246013A521901349A42D9D877
:1048F000032140460840D5D1FFF794FD041E1ED089
:10490000254EFFF7D5FC337C082BCBD00222234B5E
:1049100023481A7001F078FFC4E70124C2E7214B55
:104920001624EA18204B9A42BCD843461F4A013B42
:104930005B1901349342B5D801200321DCE7337FB2
:10494000154E002B14D0736B736103233374013B3A
:1049500073824846291C4246FFF7EAFB041ED0D169
:10496000337C082B9ED0FFF793FC041ECBD0C8E706
:10497000336B736101237382337E002B02D10533C5
:104980003374E6E708233374E3E7C046040A0020E3
:10499000250A0020FFFF01008C0D0020240A0020C2
:1049A000880D00200000F0BFFF0F0000FF0F104037
:1049B000F8B5364D061C081C291C171CFFF712FF02
:1049C0001624002801D1201CF8BD002E2BD0304B1E
:1049D0000F3C1B78002BF6D0FFF762FD041E082C5D
:1049E000F1D00728EFD02B7F002B1ED08023AA699F
:1049F00015249B1A9F42E6D87B1E7F2BE3D800200C
:104A00000421FFF70FFD041C002C1DD0214EFFF7E1
:104A10004FFC337C092BD6D002221F4B1F481A7043
:104A200001F0F2FECFE70124CDE70423AA691524A3
:104A30009B1A9F42C7D87B1E032BC4D80120042198
:104A4000FFF7F0FC041CDFE72B7F124E002B11D088
:104A5000736A7361022333742869391CFFF74AFBB8
:104A6000041ED4D1337C092BADD0FFF711FC041EFA
:104A7000CFD0CCE7336A7361337E002B02D104338D
:104A80003374E9E709233374E6E7C046040A0020DB
:104A9000250A00208C0D0020240A0020880D00200B
:104AA000F0B54746434D80B4061C0C1C081C291C5D
:104AB0009846171CFFF796FE1623002803D1181CF2
:104AC00004BC9046F0BD002E2FD03B4B1A78072334
:104AD000002AF4D0FFF7E4FC031E082BEFD00728D0
:104AE000EDD02B7F002B22D0344A16239442E6D8F7
:104AF000E119013201339142E1D8002FDFD00020CB
:104B00000521FFF78FFC061C002E24D02C4DFFF74B
:104B1000CFFB2A7C331C0A2AD1D00222294B2A48F7
:104B20001A7001F071FE331CC9E70123C7E7274B58
:104B3000274AE11816239142C1D82649E0190133CA
:104B40008842BCD8791E9142B9D801200521FFF7CF
:104B500069FC061CD8E72B7F194D002B18D0032FBA
:104B60001FD8EB6A7B436B6107232B74201C391C15
:104B70004246FFF703FB061EC9D12A7C00230A2AFE
:104B80009DD0FFF785FB0123061E2B74C5D0BEE721
:104B9000EB6A7B436B612B7E002B07D106332B74B2
:104BA000E4E7EA6ABB0853436B61DDE70A232B7431
:104BB000DCE7C046040A0020250A0020FFFF0100B0
:104BC0008C0D0020240A0020880D00200000F0BF7A
:104BD000FF0F000000101040034B80009C4689B27C
:104BE000604401800020704710100440034B800097
:104BF0009C4600236044036000207047101004406E
:104C00008021034A4942137800200B4313707047F8
:104C1000001004407F21034A002013780B401370DA
:104C20007047C0460010044082B0002806D0044BF4
:104C30001B6803600020019302B070470120FBE76E
:104C400048B0000000280CD0012801D00120704796
:104C50000022084B00201A7140321A7101321A7179
:104C6000F5E74022034B98709A7001329A70002049
:104C7000EDE7C0460010044030B500281FD0114AAF
:104C8000114B51680B4053604468002C0CD0826873
:104C9000640014190D4D1378AC4651789B006344A1
:104CA00002321980A242F5D10378002B05D0802171
:104CB000074A494213780B431370002030BD01208E
:104CC000FCE7C04600700440FFBFFFFF1010044027
:104CD00000100440062070470620704710B5021EE1
:104CE0001AD005240457144BA100CB589968002909
:104CF00012D0596800290FD03F20D978814305D1BF
:104D0000D98980233E38DB00994204D812680B4BC6
:104D100007209A4202D010BD0120FCE7084BC034A6
:104D2000A400E158074A00200A408021E250E258DE
:104D300049040A43E250EEE7000C002000435444CB
:104D400000600040FFFFFEFF031E10D0094A1968F3
:104D50000720914200D070475B7907495BB2C033AE
:104D60009B005858054A02405A500020F3E70120A2
:104D7000F1E7C0460043544400600040FFFFFFFEDF
:104D8000002836D0002934D000221B4BDB898A71E1
:104D90009BB21AB2002A1CDB052282563F20174B19
:104DA0009200D258D3788343802B0BD0D28992B211
:104DB0008A80402B15D0002B06D180230020DB00F9
:104DC0000B60704793898B8080235B000B60002011
:104DD000F7E7052282565BB29A42DFD101238B713D
:104DE000DCE7BF331A4080235B008A800B60002021
:104DF000E7E70120E5E7C04600540040000C002032
:104E000082B0002806D0044B1B6803600020019389
:104E100002B070470120FBE74CB0000070B582B0D3
:104E2000019100920122002806D0002B04D02749CE
:104E3000046806328C4202D0101C02B070BD0521FD
:104E40003F264156224C8A00A558EA78B243802A70
:104E500030D0204DC03189004E591F4A32404A514E
:104E600010251E490A78AA430A70019A002A28D000
:104E700005228256019D9200A1584D60009900299B
:104E800002D0A158009D8D60A1583F24CA78A2434A
:104E9000802A14D0002A00D1CB81FFF71FFF1023F6
:104EA0000E4A11780B431370431E9841132240425F
:104EB0000240C1E7ED897F3A002DCAD1BCE78B8162
:104EC000EBE7052282569200D8E7C04600435444DF
:104ED000000C002000600040FFFFFFFE0054004077
:104EE00010B5031E17D00D4A19680720914200D053
:104EF00010BD05229A560A48C0329200145809493A
:104F000021401150052200219A5607489200115065
:104F100019600020ECE70120EAE7C0460043544452
:104F200000600040FFFFFFFE000C0020F8B54F4678
:104F30004646C0B4002840D000293ED00B68002B64
:104F40003BD09D783F262A1CB243402A35D0DC78DE
:104F50000122A709032F2BD0A706BF0F032F27D0AD
:104F60000C273D40042D23D02740042F20D0B443EC
:104F700004D0DC8980235B009C4219D8434B026833
:104F80009A421CD000240F79414E414BE5B29C4619
:104F9000231CC0339B009A59D2B2974211D00134DE
:104FA0000B2CF2D1CB2362469B00D3580B2203710A
:104FB000101C0CBC90469946F8BD0122F8E7082267
:104FC000F6E762469B580E1C0371324B071C98464D
:104FD0001B78002B27D03049A4000B59002BEED1B1
:104FE00033683F2000E01033DA78824301D09A7BA7
:104FF000DA739A788243F6D1284B102298461B78B0
:10500000914693434246137033680B511F4B7D7199
:105010003B607379002B27D110231278134342464B
:1050200013700022C4E7082001F0F2FB0A220028D6
:10503000BED11B4A1B4BD1690B40D36101221649DB
:10504000164B086048608860C860086148618861E4
:10505000C8610862486288625960187B02431A730B
:10506000012342461370B7E7381CFFF737FE43466B
:105070001A784B4613431A1C43461A70031C581ED9
:10508000834113225B421A4092E7C04600435444D6
:10509000006000402C0C0020000C00200054004058
:1050A00000E00140FFFFBFFF064B074A07491A60B7
:1050B000074AD9605A60802212029A601A6100225F
:1050C0005A61704768050020006CDC020024F4007F
:1050D00000127A007047C04630B508250A4B0B49CC
:1050E0000B4A5C5AC00022430A4C5A521A5D2840AF
:1050F000AA4310431855585A074A0240A5200002F7
:1051000002435A5230BDC04600E00140FE03000099
:1051100001A5000013040000FE5A000030B503256D
:10512000094B0A490A4A5C5A28402243094C5A5200
:105130001A5DAA4310431855585A074A0240A52041
:10514000000202435A5230BD00E00140FE0300005D
:1051500001A5000081040000FE5A000010B51B49A3
:105160001B4A1C4B8C5A23438B5205280AD81A4BD6
:1051700080001B5815499F4690220120D2008B5C6D
:1051800083438B5411481249144B425A1340A522B1
:1051900012021343435210BD2A2201208B5C834329
:1051A0008B54EFE7362201208B5C83438B54E9E775
:1051B000382201208B5C83438B54E3E79222DCE7A7
:1051C000322201208B5C83438B54DBE700E00140FB
:1051D000FE03000001A5000074B00000FE5A0000AC
:1051E00010B51B491B4A1C4B8C5A23438B52052874
:1051F0000AD81A4B80001B5815499F46902201235C
:10520000D200885C03438B5411481249144B425A14
:105210001340A52212021343435210BD2A22012338
:10522000885C03438B54EFE736220123885C0343F9
:105230008B54E9E738220123885C03438B54E3E76E
:105240009222DCE732220123885C03438B54DBE7A4
:1052500000E00140FE03000001A500008CB000004A
:10526000FE5A0000032811D0052809D0002801D0DB
:10527000002070473C23084A0130D35C1840F8E70F
:105280003C23054AD05C8006C00FF2E73C23024A6B
:10529000D05C0007C00FECE700E00140052817D8FC
:1052A0000C4B80001B589F469023DB0001200A4ACC
:1052B000D35C18400123584070472A23F6E7362371
:1052C000F4E73823F2E79223DB00EFE73223EDE740
:1052D0000020F1E7A4B0000000E00140024B1A6A90
:1052E00026229B5C7047C04600E0014030B50B4A67
:1052F0000B490C4B545A40252343535201230A4C6B
:1053000018408301105DA84318431055505A074BAD
:105310000340A52000020343535230BD00E001408A
:10532000FE03000001A5000013040000FE5A000067
:1053300030B50A4B0A4A0B489C5A0F252043A22439
:105340009852185D2940A84301431955985A0649B7
:105350000140A52000020143995230BD00E0014008
:10536000FE03000001A50000FE5A000005220023F4
:1053700082425B41D8B270470622002382425B41E1
:10538000D8B2704726230720014AD35C18407047E3
:1053900000E0014030B50A4B0A4A0B499C5A0725E8
:1053A000214326249952195D2840A94308431855E2
:1053B000985A06490140A52000020143995230BD88
:1053C00000E00140FE03000001A50000FE5A0000BD
:1053D0007047C0467047C046F0B50725144E154FBC
:1053E000154BF25B1343F35301788278047929401B
:1053F0002A40120109032C401143427924042A4017
:10540000214344781207C3782C4011438279240247
:105410002B402A40214312060B4313433362F25BB5
:10542000064B1340A52212021343F353F0BDC046AE
:1054300000E00140FE03000001A50000FE5A00004C
:1054400007230E4A116A090B19400170116A090AF3
:1054500019404170116A090919408170116A194097
:10546000C170116A090C19400171116A090F1940C4
:105470004171126A120E13408371704700E00140BF
:1054800070B543780025032B14D84668041C0B49DB
:10549000301C02F06FFF00280CD18221301CC9059E
:1054A00002F054FF002805D12578032D04D06B426B
:1054B0005D41EDB2281C70BD0125FBE70000F841FD
:1054C000062826D8144B80001B589F46134B186A99
:1054D0004000400F7047114B186A4001400FF9E738
:1054E0000E4B186A4004400FF4E70C4B186A400555
:1054F000400FEFE7094B186A4006400FEAE7072024
:10550000064B1B6A1840E5E7044B186A4003400F3E
:10551000E0E70020DEE7C046BCB0000000E001404C
:1055200008B5FFF7CDFF2623044AD35C07221340BA
:10553000034A9B009B58C340181C08BD00E0014073
:1055400068050020024B8000C358CB40181C7047F0
:105550006805002070B5124A124D134BA95A82B04B
:105560000B43AB526B460026DC1D201C267000F05E
:1055700097FFA0232A1CA0200121EE54135C094DA3
:105580001B091942FAD1207800F08CFF0449074B1F
:105590006A5A1340A522120213436B5202B070BD27
:1055A000FE03000000E0014002A50000FD5A0000DB
:1055B00010B50C4B0C4A0D49985A8024014399525E
:1055C0004021585C64422043585401205C5C2043D5
:1055D0005854985A06490140A520000201439952A7
:1055E00010BDC04600E00140FE03000001A5000020
:1055F000FE5A000010B50B4B0B4A0C49985A012477
:10560000014399524021585CA0435854585C7E3461
:1056100020405854985A06490140A52000020143F1
:10562000995210BD00E00140FE03000001A50000FA
:10563000FE5A00004023024AD05CC0097047C046B1
:1056400000E0014041230120014AD35C184070472B
:1056500000E001404121012030B50B4A535C03407A
:105660000020012B0FD10948094C155A2C43145224
:10567000545C9C435454115A064B0B40A52109021B
:105680000B431352012030BD00E00140FE03000037
:1056900001A50000FE5A000030B50A4B0A4A0B492A
:1056A0009C5A0125214330249952195D2840A94371
:1056B00008431855985A06490140A52000020143A5
:1056C000995230BD00E00140FE03000001A500003A
:1056D000FE5A000010B5094B094A0A49985A01437D
:1056E0005220995201211C5C21431954985A0649B1
:1056F0000140A52000020143995210BD00E0014085
:10570000FE03000001A50000FE5A000010B5094B81
:10571000094A0A49985A0124014352209952195CB6
:10572000A1431954985A06490140A520000201439B
:10573000995210BD00E00140FE03000001A50000E9
:10574000FE5A0000F0B5104B104D114A5C5B7F26ED
:1057500022433E2470275A531A5D3240783E1A5530
:1057600031400A01195D3040B943114319551A5DA2
:10577000B24310431855595B064A0A40A521090255
:105780000A435A53F0BDC04600E00140FE0300004A
:1057900001A50000FE5A000010B50A4B0A4A0B4949
:1057A000985A802401433E209952195C6442214357
:1057B0001954985A06490140A52000020143995204
:1057C00010BDC04600E00140FE03000001A500003E
:1057D000FE5A000010B5094B094A0A49985A7F241D
:1057E00001433E209952195C21401954985A0649A8
:1057F0000140A52000020143995210BD00E0014084
:10580000FE03000001A50000FE5A00000F4B30B55A
:105810001C681968021C0120890700D430BD0021D2
:105820000B4D013A1960AA4202D91C600020F5E72D
:10583000C025084C5A60226A2D061202120A2A4319
:105840002262072299601A60E8E7C04610E000E093
:10585000FFFFFF0000ED00E0502210B50F240349C8
:1058600020408B5CA3431843885410BD00E00140E6
:1058700050228020024940428B5C03438B54704786
:1058800000E0014050227F2002498B5C03408B5492
:105890007047C04600E0014000207047002070477C
:1058A00000207047024B1B68036000207047C04611
:1058B00034B1000038B5051C0C1CFFF763FD2870DF
:1058C000201CFFF7BDFD002038BDC04638B50023C1
:1058D0000B60051C0C1CFFF74FFD0323002801D1B2
:1058E000181C38BD281CFFF71BFE00232060F7E7BB
:1058F00008B5FFF7A7FE002803D0FFF743FD0328F4
:1059000003D0FFF7A7FE002008BD9820FF30FBE77B
:1059100008B5FFF7C1FE002008BDC04608B5FFF777
:10592000D9FE002008BDC04608B5FFF7EFFE0020F5
:1059300008BDC04608B5FFF705FF002008BDC046FA
:1059400008B5FFF729FF002008BDC04608B5FFF7DE
:1059500041FF002008BDC04608B5FFF77DFF0020CD
:1059600008BDC04608B5FFF783FF002008BDC0464C
:1059700008B5FFF787FF002008BDC04600B5124BF1
:1059800083B00193FFF790FB0420FFF729FC05E0AB
:10599000019B002B07D0019B013B01930420FFF7E3
:1059A0007DFC0028F4D1019B002B03D1CD204000C9
:1059B00003B000BD04200521FFF790FC0020FFF795
:1059C000ADFB0020F4E7C046FFFF000010B5041C4B
:1059D000FFF7CCFC031C0320002B00D110BD631E7D
:1059E000012B10D9042C0ED0002C04D0FD22E31E74
:1059F00000201342F2D1201CFFF750FC00280AD1EE
:105A0000C8204000EAE7201CFFF748FC431E9841ED
:105A10009130FF30E2E7201CFFF724FC434258415D
:105A20009330FF30DAE7C04630B583B0041C0D1C5C
:105A3000FFF79CFC002802D1032003B030BD052CE9
:105A400012D0201CFFF72AFC002802D09220FF3041
:105A5000F3E7631E012B40D9042C48D0002C1CD046
:105A6000032C22D00020E8E70520FFF717FC0028D0
:105A700038D10120002DE0D0FFF784FC0528E5D0C7
:105A8000281CFFF7FDFC0028D6D02878FFF706FC7D
:105A9000002843D19530FF30CFE70020FFF7E2FB2D
:105AA000002811D09420FF30C7E70320FFF7DAFB6E
:105AB0000028F7D10020FFF70FFB0020FFF716FCAE
:105AC00003200921FFF734FC201C0121FFF73AFDD8
:105AD0001B4B984201D9FFF73DFD201CFFF73EFB11
:105AE0000020AAE7FFF7F6FA9220FF30A5E704208E
:105AF000FFF734FB134B019305E0019B002B07D00C
:105B0000019B013B01930420FFF7C8FB0028F4D060
:105B1000019B002BA6D1CD2040008EE70520FFF78A
:105B2000A1FB0028BED16878FFF754FC6868FFF736
:105B30004FFCFFF7CFFA0520FFF710FB00207CE7B2
:105B400000093D00FFFF000010B582B0041CFFF704
:105B50000DFC0323002802D1181C02B010BDFFF772
:105B600011FC844222D0012C23D0201CFFF796FB8D
:105B7000002819D0022C14D0042C21D0002C03D0E2
:105B8000FD22E31E13420FD1201CFFF76BFB002800
:105B900007D19423FF33DFE70120FFF77FFB0028C5
:105BA00002D0201CFFF71CFB0023D5E79223FF3314
:105BB000D2E7FFF73FFD0028EED09623FF33CBE777
:105BC0000420FFF70DFB0A4B019305E0019B002B1E
:105BD00007D0019B013B01930420FFF75FFB0028E6
:105BE000F4D1019B002BDFD1CD235B00B4E7C0468D
:105BF000FFFF000008B5031C002909D00120002B7D
:105C000005D0191C00F088FCFFF7D2FC002008BD6D
:105C1000FFF718FD002802D0CB204000F7E7FFF780
:105C2000E9FC0020F3E7C04608B500F05FFC03F094
:105C3000A9FA011CFE20800502F0E2FD084902F0ED
:105C4000D1FF011C074802F0DBFD02F0F1FBFFF77A
:105C5000DDFD031C5A42534112205B42184008BD2F
:105C60000024744900401C4608B5031C0320002B87
:105C700000D108BDFFF7D8FFFBE7C04630B583B0C1
:105C8000041C0D1CFFF772FB0323002802D1181C13
:105C900003B030BD002D26D0A9796A788A42F6D3A8
:105CA000201CFFF74FFCFFF76DFB844205D0002C52
:105CB0001BD0FD22E31E134217D06846FFF7C0FB3E
:105CC0006B469A79AB799A4217D2281CFFF784FB6E
:105CD000201CFFF75FFB00F009FC0B4B1860FFF77F
:105CE000A3FF0023D3E70123D1E7201CFFF7BAFA73
:105CF0000028E2D1C9235B00C9E7201CFFF74AFB5B
:105D0000281CFFF769FBE6E7CC0D00200B7C032085
:105D10005A1E93415B4218407047C0467047C046C8
:105D2000C02310B54C689B0503221C4201D0101CF7
:105D300010BD096819420BD10022CB00F7D58300B2
:105D40001818084B8000C35C002BF0D00332EEE73C
:105D5000054B1C882406EAD47A241B5D002BE6D16F
:105D6000EAE7C0460000002000C0054010B50C1C4A
:105D7000012000F09DFD012000F078FD2368DB008C
:105D800005D58021074A4900538A0B4353820120DD
:105D9000E36804491B0F03401A1C4B8A83431343D7
:105DA0004B8210BD00C005408021034A8900538A00
:105DB0000B4353827047C04600C005407047C04641
:105DC0008021034A490113880B4313807047C04662
:105DD00000C005404023024A11880B4313807047DE
:105DE00000C005404021024A13888B43138070474E
:105DF00000C00540802210B5041C012016498B5AB2
:105E00000340012B1CD0144A13885B049B0F012B09
:105E10001FD0FC21138A89010B43138200220E4BF1
:105E200001201A8000F044FD002C05D180210B4A8E
